{
  "contractName": "Creator",
  "abi": [
    {
      "anonymous": false,
      "inputs": [
        {
          "indexed": false,
          "internalType": "address",
          "name": "contractAddress",
          "type": "address"
        }
      ],
      "name": "newVotingContractEvent",
      "type": "event"
    },
    {
      "constant": false,
      "inputs": [
        {
          "internalType": "uint32",
          "name": "_timeLimit",
          "type": "uint32"
        },
        {
          "internalType": "uint8",
          "name": "_ballotType",
          "type": "uint8"
        },
        {
          "internalType": "uint8",
          "name": "_voteLimit",
          "type": "uint8"
        },
        {
          "internalType": "uint32",
          "name": "_ballotId",
          "type": "uint32"
        },
        {
          "internalType": "string",
          "name": "_title",
          "type": "string"
        },
        {
          "internalType": "uint8",
          "name": "_whiteListType",
          "type": "uint8"
        }
      ],
      "name": "createBallot",
      "outputs": [],
      "payable": false,
      "stateMutability": "nonpayable",
      "type": "function"
    },
    {
      "constant": true,
      "inputs": [
        {
          "internalType": "uint32",
          "name": "_ballotId",
          "type": "uint32"
        }
      ],
      "name": "getAddress",
      "outputs": [
        {
          "internalType": "address",
          "name": "",
          "type": "address"
        }
      ],
      "payable": false,
      "stateMutability": "view",
      "type": "function"
    },
    {
      "constant": true,
      "inputs": [
        {
          "internalType": "address",
          "name": "_voting",
          "type": "address"
        }
      ],
      "name": "getBallotId",
      "outputs": [
        {
          "internalType": "uint32",
          "name": "_ballotId",
          "type": "uint32"
        }
      ],
      "payable": false,
      "stateMutability": "view",
      "type": "function"
    }
  ],
  "bytecode": "0x608060405234801561001057600080fd5b50612c03806100206000396000f3fe608060405234801561001057600080fd5b50600436106100415760003560e01c8063550da4781461004657806368501aee146101485780638fffa6c7146101bc575b600080fd5b610146600480360360c081101561005c57600080fd5b81019080803563ffffffff169060200190929190803560ff169060200190929190803560ff169060200190929190803563ffffffff169060200190929190803590602001906401000000008111156100b357600080fd5b8201836020820111156100c557600080fd5b803590602001918460018302840111640100000000831117156100e757600080fd5b91908080601f016020809104026020016040519081016040528093929190818152602001838380828437600081840152601f19601f820116905080830192505050505050509192919290803560ff169060200190929190505050610220565b005b61017a6004803603602081101561015e57600080fd5b81019080803563ffffffff16906020019092919050505061046a565b604051808273ffffffffffffffffffffffffffffffffffffffff1673ffffffffffffffffffffffffffffffffffffffff16815260200191505060405180910390f35b6101fe600480360360208110156101d257600080fd5b81019080803573ffffffffffffffffffffffffffffffffffffffff1690602001909291905050506104b2565b604051808263ffffffff1663ffffffff16815260200191505060405180910390f35b6000868686868686336040516102359061050b565b808863ffffffff1663ffffffff1681526020018760ff1660ff1681526020018660ff1660ff1681526020018563ffffffff1663ffffffff168152602001806020018460ff1660ff1681526020018373ffffffffffffffffffffffffffffffffffffffff1673ffffffffffffffffffffffffffffffffffffffff168152602001828103825285818151815260200191508051906020019080838360005b838110156102ec5780820151818401526020810190506102d1565b50505050905090810190601f1680156103195780820380516001836020036101000a031916815260200191505b5098505050505050505050604051809103906000f080158015610340573d6000803e3d6000fd5b509050806000808663ffffffff1663ffffffff16815260200190815260200160002060006101000a81548173ffffffffffffffffffffffffffffffffffffffff021916908373ffffffffffffffffffffffffffffffffffffffff16021790555083600160008373ffffffffffffffffffffffffffffffffffffffff1673ffffffffffffffffffffffffffffffffffffffff16815260200190815260200160002060006101000a81548163ffffffff021916908363ffffffff1602179055507f700e8ad80f90ddc90cb456c925b7a26c0954bf61fbbda37b359952c2db7762c981604051808273ffffffffffffffffffffffffffffffffffffffff1673ffffffffffffffffffffffffffffffffffffffff16815260200191505060405180910390a150505050505050565b60008060008363ffffffff1663ffffffff16815260200190815260200160002060009054906101000a900473ffffffffffffffffffffffffffffffffffffffff169050919050565b6000600160008373ffffffffffffffffffffffffffffffffffffffff1673ffffffffffffffffffffffffffffffffffffffff16815260200190815260200160002060009054906101000a900463ffffffff169050919050565b6126b6806105198339019056fe60806040523480156200001157600080fd5b50604051620026b6380380620026b6833981810160405260e08110156200003757600080fd5b8101908080519060200190929190805190602001909291908051906020019092919080519060200190929190805160405193929190846401000000008211156200008057600080fd5b838201915060208201858111156200009757600080fd5b8251866001820283011164010000000082111715620000b557600080fd5b8083526020830192505050908051906020019080838360005b83811015620000eb578082015181840152602081019050620000ce565b50505050905090810190601f168015620001195780820380516001836020036101000a031916815260200191505b50604052602001805190602001909291908051906020019092919050505086600760000160066101000a81548163ffffffff021916908363ffffffff16021790555085600760000160006101000a81548160ff021916908360ff16021790555084600760000160056101000a81548160ff021916908360ff16021790555083600760000160016101000a81548163ffffffff021916908363ffffffff1602179055508260076001019080519060200190620001d692919062000243565b5081600760020160006101000a81548160ff021916908360ff16021790555080601460006101000a81548173ffffffffffffffffffffffffffffffffffffffff021916908373ffffffffffffffffffffffffffffffffffffffff16021790555050505050505050620002f2565b828054600181600116156101000203166002900490600052602060002090601f016020900481019282601f106200028657805160ff1916838001178555620002b7565b82800160010185558215620002b7579182015b82811115620002b657825182559160200191906001019062000299565b5b509050620002c69190620002ca565b5090565b620002ef91905b80821115620002eb576000816000905550600101620002d1565b5090565b90565b6123b480620003026000396000f3fe608060405234801561001057600080fd5b506004361061018e5760003560e01c80636ec4847a116100de578063c91018a011610097578063e61c520611610071578063e61c520614610adb578063eda9daed14610afd578063f032bf9314610b4d578063ff3c1a8f14610b6f5761018e565b8063c91018a0146109bb578063d0880529146109dd578063e04a3dbd14610a235761018e565b80636ec4847a1461060b5780637ee4b0e51461062d5780639201de551461078d578063922133e3146108345780639244a9bd14610876578063b02a61ed146109035761018e565b806354213d1c1161014b578063646208581161012557806364620858146104af57806367bf0071146105035780636cb6aa97146105495780636cfd8b82146106015761018e565b806354213d1c1461041d578063555a1ad6146104635780635b9eb7611461048d5761018e565b8063138d9455146101935780632f265cf7146101db5780633456763b1461021d57806338cc4831146102d5578063392e66781461031f57806343eba0e614610365575b600080fd5b6101bf600480360360208110156101a957600080fd5b8101908080359060200190929190505050610bf2565b604051808260ff1660ff16815260200191505060405180910390f35b610207600480360360208110156101f157600080fd5b8101908080359060200190929190505050610ca9565b6040518082815260200191505060405180910390f35b6102d36004803603602081101561023357600080fd5b810190808035906020019064010000000081111561025057600080fd5b82018360208201111561026257600080fd5b8035906020019184602083028401116401000000008311171561028457600080fd5b919080806020026020016040519081016040528093929190818152602001838360200280828437600081840152601f19601f820116905080830192505050505050509192919290505050610d63565b005b6102dd610e88565b604051808273ffffffffffffffffffffffffffffffffffffffff1673ffffffffffffffffffffffffffffffffffffffff16815260200191505060405180910390f35b61034b6004803603602081101561033557600080fd5b8101908080359060200190929190505050610e90565b604051808215151515815260200191505060405180910390f35b61041b6004803603602081101561037b57600080fd5b810190808035906020019064010000000081111561039857600080fd5b8201836020820111156103aa57600080fd5b803590602001918460208302840111640100000000831117156103cc57600080fd5b919080806020026020016040519081016040528093929190818152602001838360200280828437600081840152601f19601f820116905080830192505050505050509192919290505050610f00565b005b6104616004803603606081101561043357600080fd5b8101908080359060200190929190803561ffff16906020019092919080359060200190929190505050611025565b005b61046b6111e9565b604051808263ffffffff1663ffffffff16815260200191505060405180910390f35b610495611206565b604051808215151515815260200191505060405180910390f35b6104e9600480360360408110156104c557600080fd5b8101908080359060200190929190803561ffff16906020019092919050505061123b565b604051808215151515815260200191505060405180910390f35b61052f6004803603602081101561051957600080fd5b81019080803590602001909291905050506112ac565b604051808215151515815260200191505060405180910390f35b6105ff6004803603602081101561055f57600080fd5b810190808035906020019064010000000081111561057c57600080fd5b82018360208201111561058e57600080fd5b803590602001918460208302840111640100000000831117156105b057600080fd5b919080806020026020016040519081016040528093929190818152602001838360200280828437600081840152601f19601f820116905080830192505050505050509192919290505050611308565b005b610609611435565b005b6106136116f2565b604051808215151515815260200191505060405180910390f35b61078b6004803603608081101561064357600080fd5b810190808035906020019064010000000081111561066057600080fd5b82018360208201111561067257600080fd5b8035906020019184602083028401116401000000008311171561069457600080fd5b919080806020026020016040519081016040528093929190818152602001838360200280828437600081840152601f19601f82011690508083019250505050505050919291929080359060200190929190803590602001909291908035906020019064010000000081111561070857600080fd5b82018360208201111561071a57600080fd5b8035906020019184602083028401116401000000008311171561073c57600080fd5b919080806020026020016040519081016040528093929190818152602001838360200280828437600081840152601f19601f820116905080830192505050505050509192919290505050611774565b005b6107b9600480360360208110156107a357600080fd5b8101908080359060200190929190505050611b17565b6040518080602001828103825283818151815260200191508051906020019080838360005b838110156107f95780820151818401526020810190506107de565b50505050905090810190601f1680156108265780820380516001836020036101000a031916815260200191505b509250505060405180910390f35b6108606004803603602081101561084a57600080fd5b8101908080359060200190929190505050611caa565b6040518082815260200191505060405180910390f35b6108ac6004803603602081101561088c57600080fd5b81019080803567ffffffffffffffff169060200190929190505050611d2f565b6040518080602001828103825283818151815260200191508051906020019060200280838360005b838110156108ef5780820151818401526020810190506108d4565b505050509050019250505060405180910390f35b6109b96004803603602081101561091957600080fd5b810190808035906020019064010000000081111561093657600080fd5b82018360208201111561094857600080fd5b8035906020019184602083028401116401000000008311171561096a57600080fd5b919080806020026020016040519081016040528093929190818152602001838360200280828437600081840152601f19601f820116905080830192505050505050509192919290505050611e0e565b005b6109c3611edd565b604051808215151515815260200191505060405180910390f35b610a09600480360360208110156109f357600080fd5b8101908080359060200190929190505050611f0e565b604051808215151515815260200191505060405180910390f35b610ad960048036036020811015610a3957600080fd5b8101908080359060200190640100000000811115610a5657600080fd5b820183602082011115610a6857600080fd5b80359060200191846020830284011164010000000083111715610a8a57600080fd5b919080806020026020016040519081016040528093929190818152602001838360200280828437600081840152601f19601f820116905080830192505050505050509192919290505050611f6a565b005b610ae3612039565b604051808215151515815260200191505060405180910390f35b610b3360048036036020811015610b1357600080fd5b81019080803567ffffffffffffffff16906020019092919050505061206a565b604051808215151515815260200191505060405180910390f35b610b556120ac565b604051808215151515815260200191505060405180910390f35b610b776120dd565b6040518080602001828103825283818151815260200191508051906020019080838360005b83811015610bb7578082015181840152602081019050610b9c565b50505050905090810190601f168015610be45780820380516001836020036101000a031916815260200191505b509250505060405180910390f35b6000806003600201600084815260200190815260200160002060009054906101000a900461ffff1661ffff161415610c2d5760019050610ca4565b3373ffffffffffffffffffffffffffffffffffffffff166003600101600084815260200190815260200160002060009054906101000a900473ffffffffffffffffffffffffffffffffffffffff1673ffffffffffffffffffffffffffffffffffffffff1614610c9f5760029050610ca4565b600090505b919050565b6000801515610cb6611edd565b1515148015610cd0575060011515610ccc611206565b1515145b15610cde5760009050610d5e565b60001515610ceb83610e90565b15151415610d44576040517f08c379a000000000000000000000000000000000000000000000000000000000815260040180806020018281038252602d8152602001806122e7602d913960400191505060405180910390fd5b600060020160008381526020019081526020016000205490505b919050565b601460009054906101000a900473ffffffffffffffffffffffffffffffffffffffff1673ffffffffffffffffffffffffffffffffffffffff163373ffffffffffffffffffffffffffffffffffffffff1614610e26576040517f08c379a00000000000000000000000000000000000000000000000000000000081526004018080602001828103825260168152602001807f53656e646572206e6f7420617574686f72697a65642e0000000000000000000081525060200191505060405180910390fd5b60008090505b8151811015610e84576007600401828281518110610e4657fe5b602002602001015190806001815401808255809150509060018203906000526020600020016000909192909190915055508080600101915050610e2c565b5050565b600030905090565b600080600090505b6000800180549050811015610ef5578260006001016000806000018481548110610ebe57fe5b90600052602060002001548152602001908152602001600020541415610ee8576001915050610efb565b8080600101915050610e98565b50600090505b919050565b601460009054906101000a900473ffffffffffffffffffffffffffffffffffffffff1673ffffffffffffffffffffffffffffffffffffffff163373ffffffffffffffffffffffffffffffffffffffff1614610fc3576040517f08c379a00000000000000000000000000000000000000000000000000000000081526004018080602001828103825260168152602001807f53656e646572206e6f7420617574686f72697a65642e0000000000000000000081525060200191505060405180910390fd5b60008090505b8151811015611021576007600301828281518110610fe357fe5b602002602001015190806001815401808255809150509060018203906000526020600020016000909192909190915055508080600101915050610fc9565b5050565b60011515611031612039565b151514801561104c57506000151561104884611f0e565b1515145b156110a2576040517f08c379a00000000000000000000000000000000000000000000000000000000081526004018080602001828103825260218152602001806123146021913960400191505060405180910390fd5b600115156110ae6120ac565b15151480156110c95750600015156110c5826112ac565b1515145b1561113c576040517f08c379a00000000000000000000000000000000000000000000000000000000081526004018080602001828103825260198152602001807f446f6d61696e206973206e6f7420776869746c69737465642e0000000000000081525060200191505060405180910390fd5b816003600201600085815260200190815260200160002060006101000a81548161ffff021916908361ffff160217905550336003600101600085815260200190815260200160002060006101000a81548173ffffffffffffffffffffffffffffffffffffffff021916908373ffffffffffffffffffffffffffffffffffffffff160217905550826003800160008461ffff1661ffff16815260200190815260200160002081905550505050565b6000600760000160069054906101000a900463ffffffff16905090565b6000600760000160069054906101000a900463ffffffff1663ffffffff1642106112335760009050611238565b600190505b90565b6000806003600201600085815260200190815260200160002060009054906101000a900461ffff1661ffff1614801561129357506000801b6003800160008461ffff1661ffff16815260200190815260200160002054145b156112a157600190506112a6565b600090505b92915050565b600080600090505b6007600401805490508110156112fd5782600760040182815481106112d557fe5b906000526020600020015414156112f0576001915050611303565b80806001019150506112b4565b50600090505b919050565b601460009054906101000a900473ffffffffffffffffffffffffffffffffffffffff1673ffffffffffffffffffffffffffffffffffffffff163373ffffffffffffffffffffffffffffffffffffffff16146113cb576040517f08c379a00000000000000000000000000000000000000000000000000000000081526004018080602001828103825260168152602001807f53656e646572206e6f7420617574686f72697a65642e0000000000000000000081525060200191505060405180910390fd5b60008090505b8151811015611431578181815181106113e657fe5b6020026020010151600e8190555060008001600e54908060018154018082558091505090600182039060005260206000200160009091929091909150555080806001019150506113d1565b5050565b601460009054906101000a900473ffffffffffffffffffffffffffffffffffffffff1673ffffffffffffffffffffffffffffffffffffffff163373ffffffffffffffffffffffffffffffffffffffff16146114f8576040517f08c379a00000000000000000000000000000000000000000000000000000000081526004018080602001828103825260168152602001807f53656e646572206e6f7420617574686f72697a65642e0000000000000000000081525060200191505060405180910390fd5b6001600f8190555060008090505b60008001805490508110156116ef5760008001818154811061152457fe5b9060005260206000200154600e81905550611540600e54611b17565b600c9080519060200190611555929190612182565b50600c60405160200180806020018281038252838181546001816001161561010002031660029004815260200191508054600181600116156101000203166002900480156115e45780601f106115b9576101008083540402835291602001916115e4565b820191906000526020600020905b8154815290600101906020018083116115c757829003601f168201915b5050925050506040516020818303038152906040528051906020012060006001016000600e54815260200190815260200160002081905550600f5460006002016000600c60405160200180806020018281038252838181546001816001161561010002031660029004815260200191508054600181600116156101000203166002900480156116b45780601f10611689576101008083540402835291602001916116b4565b820191906000526020600020905b81548152906001019060200180831161169757829003601f168201915b505092505050604051602081830303815290604052805190602001208152602001908152602001600020819055508080600101915050611506565b50565b6000600760000160059054906101000a900460ff1660ff16600360000160003373ffffffffffffffffffffffffffffffffffffffff1673ffffffffffffffffffffffffffffffffffffffff16815260200190815260200160002060009054906101000a900460ff1660ff16141561176c5760009050611771565b600190505b90565b60001515611780611206565b151514156117f6576040517f08c379a000000000000000000000000000000000000000000000000000000000815260040180806020018281038252601f8152602001807f5468652074696d6520666f7220766f74696e6720686173207061737365642e0081525060200191505060405180910390fd5b600015156118026116f2565b1515141561185b576040517f08c379a00000000000000000000000000000000000000000000000000000000081526004018080602001828103825260298152602001806123356029913960400191505060405180910390fd5b60011515611867612039565b151514801561188257506000151561187e84611f0e565b1515145b156118d8576040517f08c379a000000000000000000000000000000000000000000000000000000000815260040180806020018281038252602281526020018061235e6022913960400191505060405180910390fd5b600115156118e46120ac565b15151480156118ff5750600015156118fb836112ac565b1515145b15611972576040517f08c379a000000000000000000000000000000000000000000000000000000000815260040180806020018281038252601a8152602001807f446f6d61696e206973206e6f742077686974656c69737465642e00000000000081525060200191505060405180910390fd5b8360119080519060200190611988929190612202565b50806012908051906020019061199f92919061224f565b506001600360000160003373ffffffffffffffffffffffffffffffffffffffff1673ffffffffffffffffffffffffffffffffffffffff16815260200190815260200160002060008282829054906101000a900460ff160192506101000a81548160ff021916908360ff16021790555060008090505b601280549050811015611b105760128181548110611a2e57fe5b9060005260206000200154600e8190555060006001016000600e5481526020019081526020016000205460108190555060001515611a6d601054610e90565b15151415611ac6576040517f08c379a000000000000000000000000000000000000000000000000000000000815260040180806020018281038252602d8152602001806122e7602d913960400191505060405180910390fd5b60118181548110611ad357fe5b9060005260206000200154600f81905550600f54600060020160006010548152602001908152602001600020819055508080600101915050611a14565b5050505050565b60608060206040519080825280601f01601f191660200182016040528015611b4e5781602001600182028038833980820191505090505b509050600080905060008090505b6020811015611bf85760008160080260020a8660001c0260001b9050600060f81b817effffffffffffffffffffffffffffffffffffffffffffffffffffffffffffff191614611bea5780848481518110611bb257fe5b60200101907effffffffffffffffffffffffffffffffffffffffffffffffffffffffffffff1916908160001a90535082806001019350505b508080600101915050611b5c565b506060816040519080825280601f01601f191660200182016040528015611c2e5781602001600182028038833980820191505090505b50905060008090505b82811015611c9e57838181518110611c4b57fe5b602001015160f81c60f81b828281518110611c6257fe5b60200101907effffffffffffffffffffffffffffffffffffffffffffffffffffffffffffff1916908160001a9053508080600101915050611c37565b50809350505050919050565b6000801515611cb883610e90565b15151415611d11576040517f08c379a000000000000000000000000000000000000000000000000000000000815260040180806020018281038252602d8152602001806122e7602d913960400191505060405180910390fd5b60006002016000838152602001908152602001600020549050919050565b606060001515611d3e8361206a565b15151415611db4576040517f08c379a00000000000000000000000000000000000000000000000000000000081526004018080602001828103825260178152602001807f42616c6c6f74494420646f6573206e6f74206d6174636800000000000000000081525060200191505060405180910390fd5b60008001805480602002602001604051908101604052809291908181526020018280548015611e0257602002820191906000526020600020905b815481526020019060010190808311611dee575b50505050509050919050565b601460009054906101000a900473ffffffffffffffffffffffffffffffffffffffff1673ffffffffffffffffffffffffffffffffffffffff163373ffffffffffffffffffffffffffffffffffffffff1614611ed1576040517f08c379a00000000000000000000000000000000000000000000000000000000081526004018080602001828103825260168152602001807f53656e646572206e6f7420617574686f72697a65642e0000000000000000000081525060200191505060405180910390fd5b611eda81610d63565b50565b60006001600760000160009054906101000a900460ff1660ff161415611f065760009050611f0b565b600190505b90565b600080600090505b600760030180549050811015611f5f578260076003018281548110611f3757fe5b90600052602060002001541415611f52576001915050611f65565b8080600101915050611f16565b50600090505b919050565b601460009054906101000a900473ffffffffffffffffffffffffffffffffffffffff1673ffffffffffffffffffffffffffffffffffffffff163373ffffffffffffffffffffffffffffffffffffffff161461202d576040517f08c379a00000000000000000000000000000000000000000000000000000000081526004018080602001828103825260168152602001807f53656e646572206e6f7420617574686f72697a65642e0000000000000000000081525060200191505060405180910390fd5b61203681610f00565b50565b60006001600760020160009054906101000a900460ff1660ff1614156120625760019050612067565b600090505b90565b6000600760000160019054906101000a900463ffffffff1663ffffffff168267ffffffffffffffff1614156120a257600190506120a7565b600090505b919050565b60006002600760020160009054906101000a900460ff1660ff1614156120d557600190506120da565b600090505b90565b606060076001018054600181600116156101000203166002900480601f0160208091040260200160405190810160405280929190818152602001828054600181600116156101000203166002900480156121785780601f1061214d57610100808354040283529160200191612178565b820191906000526020600020905b81548152906001019060200180831161215b57829003601f168201915b5050505050905090565b828054600181600116156101000203166002900490600052602060002090601f016020900481019282601f106121c357805160ff19168380011785556121f1565b828001600101855582156121f1579182015b828111156121f05782518255916020019190600101906121d5565b5b5090506121fe919061229c565b5090565b82805482825590600052602060002090810192821561223e579160200282015b8281111561223d578251825591602001919060010190612222565b5b50905061224b919061229c565b5090565b82805482825590600052602060002090810192821561228b579160200282015b8281111561228a57825182559160200191906001019061226f565b5b50905061229891906122c1565b5090565b6122be91905b808211156122ba5760008160009055506001016122a2565b5090565b90565b6122e391905b808211156122df5760008160009055506001016122c7565b5090565b9056fe546869732069732061206e6f6e2d6578697374656e74206f7074696f6e2f63616e646964617465206e616d652e456d61696c2061646472657373206973206e6f742077686974656c69737465642e4d6178696d756d206e756d626572206f6620766f74657320686173206265656e20726561636865642e456d61696c2061646472657373206973206e6f742077686974656c6973747465642ea265627a7a72315820b812ab6be6e7a517f03e58dae415c003bc41f5e0fedb0a5b497793cb12d20b2764736f6c63430005100032a265627a7a723158203c1b277b0d0dba4aa4d1548b0b983cada688a5b0bd261e44647800feae5e2d6b64736f6c63430005100032",
  "source": "pragma solidity >=0.5.1;\n\ncontract Voting {\n\n    event Bool(bool judge);\n    event VotesCounts(uint256 _votesReceived);\n    \n    // \n    struct Ballot {\n        uint8 ballotType;   // ? election() or poll()\n        uint32 ballotId;    // Voting\n        uint8 voteLimit;    // \n        uint32 timeLimit;   // \n        string title;       // \n        uint8 whiteListType;                        // Email\n        bytes32[] whiteEmailAddresses;              // Email\n        bytes32[] whiteDomains;                     // Email\n    }\n\n    // \n    struct Candidates {\n        bytes32[] candidateList;    // \n        // bytes3string: candidateHash[candidateList[i]] => keccak256[string]\n        mapping (bytes32 => bytes32) candidateHash;\n        mapping (bytes32 => uint256) votesReceived; // Hashed candidate names => vote counts\n    }\n\n    // \n    struct Voter {\n        mapping (address => uint8) attemptedVotes;  // \n        mapping (bytes32 => address) voterAddr;     // EmailEthreum\n        mapping (bytes32 => uint16) voterID;        // Email/ID\n        mapping (uint16 => bytes32) voterEmail;     // /IDEmail\n    }\n\n    Candidates c;   // \n    Voter v;        // \n    Ballot b;       // \n\n    string convertCandidate;    // bytes32string\n    string tempTitle;           // title\n    bytes32 tempCandidate;      // \n    uint256 tempVote;           // votesReceived\n    bytes32 tempHash;           // \n    uint256[] tempVotes;        // votesReceived\n    bytes32[] tempCandidates;   // \n    bytes32 tempEmail;          // \n    address owner;              // \n\n    /// @param _timeLimit Voting Period\n    /// @param _ballotType The format of the vote. 0: poll, 1: election\n    /// @param _voteLimit Maximum number of vote\n    /// @param _ballotId A value to access a specific Voting contract.\n    /// @param _title Title\n    /// @param _whiteListType Whitelist type. 0: Non-whitelist, 1: E-mail, 2: domain\n    /// @param _owner Administrator's address\n    constructor\n    (uint32 _timeLimit, uint8 _ballotType, uint8 _voteLimit, uint32 _ballotId, string memory _title, uint8 _whiteListType, address _owner)\n    public {\n        // b\n        b.timeLimit = _timeLimit;\n        b.ballotType = _ballotType;\n        b.voteLimit = _voteLimit;\n        b.ballotId = _ballotId;\n        b.title = _title;\n        b.whiteListType = _whiteListType;\n\n        owner = _owner; // \n    }\n\n\n    modifier onlyOwner {\n        require(msg.sender == owner, \"Sender not authorized.\");\n        _;\n    }\n\n    // \n    // bytes32[] _candidates : \n    function setCandidate(bytes32[] memory _candidates) public onlyOwner {\n        for(uint i = 0; i < _candidates.length; i++) {\n            tempCandidate = _candidates[i]; // i\n            c.candidateList.push(tempCandidate);    // ccandidateListtempCandidate\n        }\n    }\n\n    /// @param _emails List of email addresses to be added to whiteEmailAddresses\n    function setWhiteEmailAddress(bytes32[] memory _emails) public onlyOwner {\n        for(uint i = 0; i < _emails.length; i++) {\n            b.whiteEmailAddresses.push(_emails[i]);  // vwhiteEmailAddressestempEmail\n        }\n    }\n\n    function setWhiteDomain(bytes32[] memory _domains) public onlyOwner {\n        for(uint i = 0; i < _domains.length; i++) {\n            b.whiteDomains.push(_domains[i]);\n        }\n    }\n\n    function addWhiteEmailAddress(bytes32[] memory _emails) public onlyOwner {\n        setWhiteEmailAddress(_emails);\n    }\n\n    function addWhiteDomain(bytes32[] memory _domains) public onlyOwner {\n        setWhiteDomain(_domains);\n    }\n\n    /// @notice Hash the candidate's name. and initialize the number of votes received.\n    /// @dev The reason for the initial received value of 1: 1 == decrypted0.\n    /// Because using a cryptographic scheme that adds up exponents. (PAILLER cipher)\n    function hashCandidates() public onlyOwner {\n        tempVote = 1;   // \n        for(uint i = 0; i < c.candidateList.length; i++) {\n            tempCandidate = c.candidateList[i]; // ccandidateListi\n            convertCandidate = bytes32ToString(tempCandidate);  // tempCandidatestring\n            c.candidateHash[tempCandidate] = keccak256(abi.encode(convertCandidate));   // bytes32stringkeccak256\n            c.votesReceived[keccak256(abi.encode(convertCandidate))] = tempVote;    // keccak256, tempVote = 1\n        }\n    }\n\n    // uint256[] _votes : \n    // bytes32[] _candidates : \n    // bytes32 _email : \n    function voteForCandidate(uint256[] memory _votes, bytes32 _email, bytes32 _domain, bytes32[] memory _candidates) public {\n        if (checkTimelimit() == false) revert('The time for voting has passed.');\n        if (checkVoteattempts() == false) revert('Maximum number of votes has been reached.');\n        if (usingWhiteEmailAddress() == true && whiteEmailAddressesIncludes(_email) == false) revert('Email address is not whitelistted.');\n        if (usingWhiteDomain() == true && whiteDomainsIncludes(_domain) == false) revert('Domain is not whitelisted.');\n        tempVotes = _votes;\n        tempCandidates = _candidates;       // \n        v.attemptedVotes[msg.sender] += 1;  // ()+1\n\n        for(uint i = 0; i < tempCandidates.length; i++) {\n            tempCandidate = tempCandidates[i];\n            tempHash = c.candidateHash[tempCandidate]; // \n            if (validCandidate(tempHash) == false) revert('This is a non-existent option/candidate name.');\n            tempVote = tempVotes[i];\n            c.votesReceived[tempHash] = tempVote;   // \n        }\n    }\n\n    // bytes32 cHashvotesReceived(?)\n    function votesFor(bytes32 cHash) public view returns (uint256){\n        if (validCandidate(cHash) == false) revert('This is a non-existent option/candidate name.');\n        // emit VotesCounts(c.votesReceived[cHash]);\n        return c.votesReceived[cHash];\n    }\n\n    // bytes32 cHashvotesReceived(?)\n    /// @return \n    function totalVotesFor(bytes32 cHash) public view returns (uint256){\n        if (checkBallottype() == false && checkTimelimit() == true){\n            // emit VotesCounts(0);\n            return 0;   // ,\n        }\n        if (validCandidate(cHash) == false) revert('This is a non-existent option/candidate name.');\n        // emit VotesCounts(c.votesReceived[cHash]);\n        return c.votesReceived[cHash];\n    }\n\n    function registerVoter(bytes32 _email, uint16 _idnum, bytes32 _domain) public {\n        if (usingWhiteEmailAddress() == true && whiteEmailAddressesIncludes(_email) == false) revert('Email address is not whitelisted.');\n        if (usingWhiteDomain() == true && whiteDomainsIncludes(_domain) == false) revert('Domain is not whitlisted.');\n        v.voterID[_email] = _idnum;           // Email/ID\n        v.voterAddr[_email] = msg.sender;    // EmailEtherum\n        v.voterEmail[_idnum] = _email;        // /IDEmail\n    }\n\n    // \n    // true, false\n    // bytes32 email : \n    // uint16 idnum  : /ID\n    function checkReg(bytes32 _email, uint16 _idnum) public view returns (bool) {\n        if (v.voterID[_email] == 0 && v.voterEmail[_idnum] == 0) return true;\n        else return false;\n    }\n\n    // \n    // bytes32 email : \n    function checkVoter(bytes32 email) public view returns (uint8) {\n        if (v.voterID[email] == 0) return 1;            // 1\n        // EthreumEthereum2\n        if (v.voterAddr[email] != msg.sender) return 2;\n        else return 0;  // 0\n    }\n\n    // bytes32 xstring\n    function bytes32ToString(bytes32 x) public pure returns (string memory) {\n        bytes memory bytesString = new bytes(32);\n        uint charCount = 0;\n        for (uint j = 0; j < 32; j++) {\n            byte char = byte(bytes32(uint(x) * 2 ** (8 * j)));\n            if (char != 0) {\n                bytesString[charCount] = char;\n                charCount++;\n            }\n        }\n        bytes memory bytesStringTrimmed = new bytes(charCount);\n        for (uint j = 0; j < charCount; j++) {\n            bytesStringTrimmed[j] = bytesString[j];\n        }\n        return string(bytesStringTrimmed);\n    }\n\n    // bytes32 cHash()candidateListtrue, false\n    function validCandidate(bytes32 cHash) public view returns (bool) {\n        for(uint k = 0; k < c.candidateList.length; k++) {\n            // tempCandidate = c.candidateList[k];\n            if (c.candidateHash[c.candidateList[k]] == cHash) {\n                // emit Bool(true);\n                return true;\n            }\n        }\n        // emit Bool(false);\n        return false;\n    }\n\n    // \n    // uint64 _ballotID : ID\n    function getCandidateList(uint64 _ballotID) public view returns (bytes32[] memory) {\n        if (checkballotID(_ballotID) == false) revert('BallotID does not match');\n        return c.candidateList;\n    }\n\n    //  : (block.timestamp :seconds) https://zoom-blc.com/solidity-time-logic\n    // : false\n    // : true\n    function checkTimelimit() public view returns (bool) {\n        if (block.timestamp >= b.timeLimit) return false;\n        else return true;\n    }\n\n    // ballotType.\n    function checkBallottype() public view returns (bool) {\n        if (b.ballotType == 1) return false;\n        else return true;\n    }\n\n    // IDID.\n    // true, false\n    function checkballotID(uint64 ballotID) public view returns (bool) {\n        if (ballotID == b.ballotId) return true;\n        else return false;\n    }\n\n    // , .\n    // true, false\n    function checkVoteattempts() public view returns (bool) {\n        if (v.attemptedVotes[msg.sender] == b.voteLimit) return false;\n        else return true;\n    }\n\n    function usingWhiteEmailAddress() public view returns (bool) {\n        if (b.whiteListType == 1) return true;\n        else return false;\n    }\n\n    function usingWhiteDomain() public view returns (bool) {\n        if (b.whiteListType == 2) return true;\n        else return false;\n    }\n\n    // bytes32 email, whiteEmailAddresses.\n    // true, false\n    function whiteEmailAddressesIncludes(bytes32 email) public view returns (bool) {\n        for(uint j = 0; j < b.whiteEmailAddresses.length; j++) {\n            if ( b.whiteEmailAddresses[j] == email) {\n                return true;\n            }\n        }\n        return false;\n    }\n\n    function whiteDomainsIncludes(bytes32 _domain) public view returns (bool) {\n        for(uint i = 0; i < b.whiteDomains.length; i++) {\n            if ( b.whiteDomains[i] == _domain) {\n                return true;\n            }\n        }\n        return false;\n    }\n\n    // \n    function getTimelimit() public view returns (uint32) {\n        return b.timeLimit;\n    }\n\n    // \n    function getTitle() public view returns (string memory) {\n        return b.title;\n    }\n\n    function getAddress()public view returns (address) {\n        return address(this);\n    }\n}\n\n//                         //\n//Start of Creator contract//\n//                         //\n\ncontract Creator {\n\n    event newVotingContractEvent(\n       address contractAddress\n    );\n\n    mapping (uint32 => address) votes;      // Ballot ID => Voting conract address\n    mapping (address => uint32) ballotIds;  // Voting conract address => Ballot ID \n    \n    address owner;\n\n    function createBallot(uint32 _timeLimit, uint8 _ballotType, uint8 _voteLimit, uint32 _ballotId, string memory _title, uint8 _whiteListType)\n    public {\n        Voting newVoting = new Voting(_timeLimit, _ballotType, _voteLimit, _ballotId, _title, _whiteListType, msg.sender);\n        votes[_ballotId] = address(newVoting);\n        ballotIds[address(newVoting)] = _ballotId;\n        emit newVotingContractEvent(address(newVoting));\n    }\n\n    function getAddress(uint32 _ballotId) public view returns(address) {\n        return votes[_ballotId];\n    }\n\n    function getBallotId(address _voting) public view returns(uint32 _ballotId) {\n        return ballotIds[_voting];\n    }\n}\n",
  "sourcePath": "/Users/hmori/dev/tmp/BroncoVotes-mori/solidity/contracts/Creator.sol",
  "compiler": {
    "name": "solc",
    "version": "0.5.16+commit.9c3226ce.Emscripten.clang"
  },
  "schemaVersion": "3.4.1",
  "updatedAt": "2021-11-21T09:41:37.548Z",
  "networkType": "ethereum",
  "devdoc": {
    "methods": {}
  },
  "userdoc": {
    "methods": {}
  }
}