{
  "contractName": "Voting",
  "abi": [
    {
      "inputs": [
        {
          "internalType": "uint32",
          "name": "_timeLimit",
          "type": "uint32"
        },
        {
          "internalType": "uint8",
          "name": "_ballotType",
          "type": "uint8"
        },
        {
          "internalType": "uint8",
          "name": "_voteLimit",
          "type": "uint8"
        },
        {
          "internalType": "uint32",
          "name": "_ballotId",
          "type": "uint32"
        },
        {
          "internalType": "string",
          "name": "_title",
          "type": "string"
        },
        {
          "internalType": "uint8",
          "name": "_whitelist",
          "type": "uint8"
        },
        {
          "internalType": "address",
          "name": "_owner",
          "type": "address"
        }
      ],
      "payable": false,
      "stateMutability": "nonpayable",
      "type": "constructor"
    },
    {
      "anonymous": false,
      "inputs": [
        {
          "indexed": false,
          "internalType": "bool",
          "name": "judge",
          "type": "bool"
        }
      ],
      "name": "Bool",
      "type": "event"
    },
    {
      "anonymous": false,
      "inputs": [
        {
          "indexed": false,
          "internalType": "uint256",
          "name": "_votesReceived",
          "type": "uint256"
        }
      ],
      "name": "VotesCounts",
      "type": "event"
    },
    {
      "constant": false,
      "inputs": [
        {
          "internalType": "bytes32[]",
          "name": "_candidates",
          "type": "bytes32[]"
        }
      ],
      "name": "setCandidates",
      "outputs": [],
      "payable": false,
      "stateMutability": "nonpayable",
      "type": "function"
    },
    {
      "constant": false,
      "inputs": [
        {
          "internalType": "bytes32[]",
          "name": "_emails",
          "type": "bytes32[]"
        }
      ],
      "name": "setWhitelisted",
      "outputs": [],
      "payable": false,
      "stateMutability": "nonpayable",
      "type": "function"
    },
    {
      "constant": false,
      "inputs": [],
      "name": "hashCandidates",
      "outputs": [],
      "payable": false,
      "stateMutability": "nonpayable",
      "type": "function"
    },
    {
      "constant": false,
      "inputs": [
        {
          "internalType": "uint256[]",
          "name": "_votes",
          "type": "uint256[]"
        },
        {
          "internalType": "bytes32",
          "name": "_email",
          "type": "bytes32"
        },
        {
          "internalType": "bytes32[]",
          "name": "_candidates",
          "type": "bytes32[]"
        }
      ],
      "name": "voteForCandidate",
      "outputs": [],
      "payable": false,
      "stateMutability": "nonpayable",
      "type": "function"
    },
    {
      "constant": true,
      "inputs": [
        {
          "internalType": "bytes32",
          "name": "cHash",
          "type": "bytes32"
        }
      ],
      "name": "votesFor",
      "outputs": [
        {
          "internalType": "uint256",
          "name": "",
          "type": "uint256"
        }
      ],
      "payable": false,
      "stateMutability": "view",
      "type": "function"
    },
    {
      "constant": true,
      "inputs": [
        {
          "internalType": "bytes32",
          "name": "cHash",
          "type": "bytes32"
        }
      ],
      "name": "totalVotesFor",
      "outputs": [
        {
          "internalType": "uint256",
          "name": "",
          "type": "uint256"
        }
      ],
      "payable": false,
      "stateMutability": "view",
      "type": "function"
    },
    {
      "constant": true,
      "inputs": [
        {
          "internalType": "bytes32",
          "name": "x",
          "type": "bytes32"
        }
      ],
      "name": "bytes32ToString",
      "outputs": [
        {
          "internalType": "string",
          "name": "",
          "type": "string"
        }
      ],
      "payable": false,
      "stateMutability": "view",
      "type": "function"
    },
    {
      "constant": true,
      "inputs": [
        {
          "internalType": "bytes32",
          "name": "cHash",
          "type": "bytes32"
        }
      ],
      "name": "validCandidate",
      "outputs": [
        {
          "internalType": "bool",
          "name": "",
          "type": "bool"
        }
      ],
      "payable": false,
      "stateMutability": "view",
      "type": "function"
    },
    {
      "constant": true,
      "inputs": [
        {
          "internalType": "uint64",
          "name": "_ballotID",
          "type": "uint64"
        }
      ],
      "name": "candidateList",
      "outputs": [
        {
          "internalType": "bytes32[]",
          "name": "",
          "type": "bytes32[]"
        }
      ],
      "payable": false,
      "stateMutability": "view",
      "type": "function"
    },
    {
      "constant": true,
      "inputs": [],
      "name": "checkTimelimit",
      "outputs": [
        {
          "internalType": "bool",
          "name": "",
          "type": "bool"
        }
      ],
      "payable": false,
      "stateMutability": "view",
      "type": "function"
    },
    {
      "constant": true,
      "inputs": [],
      "name": "checkBallottype",
      "outputs": [
        {
          "internalType": "bool",
          "name": "",
          "type": "bool"
        }
      ],
      "payable": false,
      "stateMutability": "view",
      "type": "function"
    },
    {
      "constant": true,
      "inputs": [
        {
          "internalType": "uint64",
          "name": "ballotID",
          "type": "uint64"
        }
      ],
      "name": "checkballotID",
      "outputs": [
        {
          "internalType": "bool",
          "name": "",
          "type": "bool"
        }
      ],
      "payable": false,
      "stateMutability": "view",
      "type": "function"
    },
    {
      "constant": true,
      "inputs": [],
      "name": "checkVoteattempts",
      "outputs": [
        {
          "internalType": "bool",
          "name": "",
          "type": "bool"
        }
      ],
      "payable": false,
      "stateMutability": "view",
      "type": "function"
    },
    {
      "constant": true,
      "inputs": [],
      "name": "checkWhitelist",
      "outputs": [
        {
          "internalType": "bool",
          "name": "",
          "type": "bool"
        }
      ],
      "payable": false,
      "stateMutability": "view",
      "type": "function"
    },
    {
      "constant": false,
      "inputs": [
        {
          "internalType": "bytes32",
          "name": "email",
          "type": "bytes32"
        }
      ],
      "name": "checkifWhitelisted",
      "outputs": [
        {
          "internalType": "bool",
          "name": "",
          "type": "bool"
        }
      ],
      "payable": false,
      "stateMutability": "nonpayable",
      "type": "function"
    },
    {
      "constant": true,
      "inputs": [],
      "name": "getTimelimit",
      "outputs": [
        {
          "internalType": "uint32",
          "name": "",
          "type": "uint32"
        }
      ],
      "payable": false,
      "stateMutability": "view",
      "type": "function"
    },
    {
      "constant": true,
      "inputs": [],
      "name": "getTitle",
      "outputs": [
        {
          "internalType": "string",
          "name": "",
          "type": "string"
        }
      ],
      "payable": false,
      "stateMutability": "view",
      "type": "function"
    }
  ],
  "bytecode": "0x60806040523480156200001157600080fd5b506040516200177238038062001772833981810160405260e08110156200003757600080fd5b8101908080519060200190929190805190602001909291908051906020019092919080519060200190929190805160405193929190846401000000008211156200008057600080fd5b838201915060208201858111156200009757600080fd5b8251866001820283011164010000000082111715620000b557600080fd5b8083526020830192505050908051906020019080838360005b83811015620000eb578082015181840152602081019050620000ce565b50505050905090810190601f168015620001195780820380516001836020036101000a031916815260200191505b50604052602001805190602001909291908051906020019092919050505086600560000160066101000a81548163ffffffff021916908363ffffffff16021790555085600560000160006101000a81548160ff021916908360ff16021790555084600560000160056101000a81548160ff021916908360ff16021790555083600560000160016101000a81548163ffffffff021916908363ffffffff1602179055508260056001019080519060200190620001d692919062000243565b5081600560020160006101000a81548160ff021916908360ff16021790555080601060006101000a81548173ffffffffffffffffffffffffffffffffffffffff021916908373ffffffffffffffffffffffffffffffffffffffff16021790555050505050505050620002f2565b828054600181600116156101000203166002900490600052602060002090601f016020900481019282601f106200028657805160ff1916838001178555620002b7565b82800160010185558215620002b7579182015b82811115620002b657825182559160200191906001019062000299565b5b509050620002c69190620002ca565b5090565b620002ef91905b80821115620002eb576000816000905550600101620002d1565b5090565b90565b61147080620003026000396000f3fe608060405234801561001057600080fd5b506004361061010b5760003560e01c80639201de55116100a2578063c91018a011610071578063c91018a0146104a6578063c9ccaea1146104c8578063d05841a01461061e578063eda9daed146106d6578063ff3c1a8f146107265761010b565b80639201de5514610278578063922133e31461031f578063a711b87814610361578063b8381c78146103ee5761010b565b8063555a1ad6116100de578063555a1ad6146102005780635b9eb7611461022a5780636cfd8b821461024c5780636ec4847a146102565761010b565b806306f2057a146101105780632f265cf714610132578063392e6678146101745780635374be8f146101ba575b600080fd5b6101186107a9565b604051808215151515815260200191505060405180910390f35b61015e6004803603602081101561014857600080fd5b81019080803590602001909291905050506107da565b6040518082815260200191505060405180910390f35b6101a06004803603602081101561018a57600080fd5b8101908080359060200190929190505050610848565b604051808215151515815260200191505060405180910390f35b6101e6600480360360208110156101d057600080fd5b81019080803590602001909291905050506108b8565b604051808215151515815260200191505060405180910390f35b610208610914565b604051808263ffffffff1663ffffffff16815260200191505060405180910390f35b610232610931565b604051808215151515815260200191505060405180910390f35b610254610966565b005b61025e610bba565b604051808215151515815260200191505060405180910390f35b6102a46004803603602081101561028e57600080fd5b8101908080359060200190929190505050610c3c565b6040518080602001828103825283818151815260200191508051906020019080838360005b838110156102e45780820151818401526020810190506102c9565b50505050905090810190601f1680156103115780820380516001836020036101000a031916815260200191505b509250505060405180910390f35b61034b6004803603602081101561033557600080fd5b8101908080359060200190929190505050610dcf565b6040518082815260200191505060405180910390f35b6103976004803603602081101561037757600080fd5b81019080803567ffffffffffffffff169060200190929190505050610e08565b6040518080602001828103825283818151815260200191508051906020019060200280838360005b838110156103da5780820151818401526020810190506103bf565b505050509050019250505060405180910390f35b6104a46004803603602081101561040457600080fd5b810190808035906020019064010000000081111561042157600080fd5b82018360208201111561043357600080fd5b8035906020019184602083028401116401000000008311171561045557600080fd5b919080806020026020016040519081016040528093929190818152602001838360200280828437600081840152601f19601f820116905080830192505050505050509192919290505050610e7e565b005b6104ae610f43565b604051808215151515815260200191505060405180910390f35b61061c600480360360608110156104de57600080fd5b81019080803590602001906401000000008111156104fb57600080fd5b82018360208201111561050d57600080fd5b8035906020019184602083028401116401000000008311171561052f57600080fd5b919080806020026020016040519081016040528093929190818152602001838360200280828437600081840152601f19601f820116905080830192505050505050509192919290803590602001909291908035906020019064010000000081111561059957600080fd5b8201836020820111156105ab57600080fd5b803590602001918460208302840111640100000000831117156105cd57600080fd5b919080806020026020016040519081016040528093929190818152602001838360200280828437600081840152601f19601f820116905080830192505050505050509192919290505050610f74565b005b6106d46004803603602081101561063457600080fd5b810190808035906020019064010000000081111561065157600080fd5b82018360208201111561066357600080fd5b8035906020019184602083028401116401000000008311171561068557600080fd5b919080806020026020016040519081016040528093929190818152602001838360200280828437600081840152601f19601f82011690508083019250505050505050919291929050505061112c565b005b61070c600480360360208110156106ec57600080fd5b81019080803567ffffffffffffffff1690602001909291905050506111f0565b604051808215151515815260200191505060405180910390f35b61072e611232565b6040518080602001828103825283818151815260200191508051906020019080838360005b8381101561076e578082015181840152602081019050610753565b50505050905090810190601f16801561079b5780820380516001836020036101000a031916815260200191505b509250505060405180910390f35b60006001600560020160009054906101000a900460ff1660ff1614156107d257600190506107d7565b600090505b90565b60008015156107e7610f43565b15151480156108015750600115156107fd610931565b1515145b1561080f5760009050610843565b6000151561081c83610848565b1515141561082957600080fd5b600060020160008381526020019081526020016000205490505b919050565b600080600090505b60008001805490508110156108ad57826000600101600080600001848154811061087657fe5b906000526020600020015481526020019081526020016000205414156108a05760019150506108b3565b8080600101915050610850565b50600090505b919050565b600080600090505b6003600001805490508110156109095782600360000182815481106108e157fe5b906000526020600020015414156108fc57600191505061090f565b80806001019150506108c0565b50600090505b919050565b6000600560000160069054906101000a900463ffffffff16905090565b6000600560000160069054906101000a900463ffffffff1663ffffffff16421061095e5760009050610963565b600190505b90565b601060009054906101000a900473ffffffffffffffffffffffffffffffffffffffff1673ffffffffffffffffffffffffffffffffffffffff163373ffffffffffffffffffffffffffffffffffffffff16146109c057600080fd5b6001600b8190555060008090505b6000800180549050811015610bb7576000800181815481106109ec57fe5b9060005260206000200154600a81905550610a08600a54610c3c565b60089080519060200190610a1d9291906112d7565b5060086040516020018080602001828103825283818154600181600116156101000203166002900481526020019150805460018160011615610100020316600290048015610aac5780601f10610a8157610100808354040283529160200191610aac565b820191906000526020600020905b815481529060010190602001808311610a8f57829003601f168201915b5050925050506040516020818303038152906040528051906020012060006001016000600a54815260200190815260200160002081905550600b546000600201600060086040516020018080602001828103825283818154600181600116156101000203166002900481526020019150805460018160011615610100020316600290048015610b7c5780601f10610b5157610100808354040283529160200191610b7c565b820191906000526020600020905b815481529060010190602001808311610b5f57829003601f168201915b5050925050506040516020818303038152906040528051906020012081526020019081526020016000208190555080806001019150506109ce565b50565b6000600560000160059054906101000a900460ff1660ff16600360010160003373ffffffffffffffffffffffffffffffffffffffff1673ffffffffffffffffffffffffffffffffffffffff16815260200190815260200160002060009054906101000a900460ff1660ff161415610c345760009050610c39565b600190505b90565b60608060206040519080825280601f01601f191660200182016040528015610c735781602001600182028038833980820191505090505b509050600080905060008090505b6020811015610d1d5760008160080260020a8660001c0260001b9050600060f81b817effffffffffffffffffffffffffffffffffffffffffffffffffffffffffffff191614610d0f5780848481518110610cd757fe5b60200101907effffffffffffffffffffffffffffffffffffffffffffffffffffffffffffff1916908160001a90535082806001019350505b508080600101915050610c81565b506060816040519080825280601f01601f191660200182016040528015610d535781602001600182028038833980820191505090505b50905060008090505b82811015610dc357838181518110610d7057fe5b602001015160f81c60f81b828281518110610d8757fe5b60200101907effffffffffffffffffffffffffffffffffffffffffffffffffffffffffffff1916908160001a9053508080600101915050610d5c565b50809350505050919050565b6000801515610ddd83610848565b15151415610dea57600080fd5b60006002016000838152602001908152602001600020549050919050565b606060001515610e17836111f0565b15151415610e2457600080fd5b60008001805480602002602001604051908101604052809291908181526020018280548015610e7257602002820191906000526020600020905b815481526020019060010190808311610e5e575b50505050509050919050565b601060009054906101000a900473ffffffffffffffffffffffffffffffffffffffff1673ffffffffffffffffffffffffffffffffffffffff163373ffffffffffffffffffffffffffffffffffffffff1614610ed857600080fd5b60008090505b8151811015610f3f57818181518110610ef357fe5b6020026020010151600f819055506003600001600f5490806001815401808255809150509060018203906000526020600020016000909192909190915055508080600101915050610ede565b5050565b60006001600560000160009054906101000a900460ff1660ff161415610f6c5760009050610f71565b600190505b90565b60001515610f80610931565b15151480610f99575060001515610f95610bba565b1515145b15610fa357600080fd5b60011515610faf6107a9565b1515148015610fca575060001515610fc6836108b8565b1515145b15610fd457600080fd5b82600d9080519060200190610fea929190611357565b5080600e90805190602001906110019291906113a4565b506001600360010160003373ffffffffffffffffffffffffffffffffffffffff1673ffffffffffffffffffffffffffffffffffffffff16815260200190815260200160002060008282829054906101000a900460ff160192506101000a81548160ff021916908360ff16021790555060008090505b600e8054905081101561112657600e818154811061109057fe5b9060005260206000200154600a8190555060006001016000600a54815260200190815260200160002054600c81905550600015156110cf600c54610848565b151514156110dc57600080fd5b600d81815481106110e957fe5b9060005260206000200154600b81905550600b5460006002016000600c548152602001908152602001600020819055508080600101915050611076565b50505050565b601060009054906101000a900473ffffffffffffffffffffffffffffffffffffffff1673ffffffffffffffffffffffffffffffffffffffff163373ffffffffffffffffffffffffffffffffffffffff161461118657600080fd5b60008090505b81518110156111ec578181815181106111a157fe5b6020026020010151600a8190555060008001600a549080600181540180825580915050906001820390600052602060002001600090919290919091505550808060010191505061118c565b5050565b6000600560000160019054906101000a900463ffffffff1663ffffffff168267ffffffffffffffff161415611228576001905061122d565b600090505b919050565b606060056001018054600181600116156101000203166002900480601f0160208091040260200160405190810160405280929190818152602001828054600181600116156101000203166002900480156112cd5780601f106112a2576101008083540402835291602001916112cd565b820191906000526020600020905b8154815290600101906020018083116112b057829003601f168201915b5050505050905090565b828054600181600116156101000203166002900490600052602060002090601f016020900481019282601f1061131857805160ff1916838001178555611346565b82800160010185558215611346579182015b8281111561134557825182559160200191906001019061132a565b5b50905061135391906113f1565b5090565b828054828255906000526020600020908101928215611393579160200282015b82811115611392578251825591602001919060010190611377565b5b5090506113a091906113f1565b5090565b8280548282559060005260206000209081019282156113e0579160200282015b828111156113df5782518255916020019190600101906113c4565b5b5090506113ed9190611416565b5090565b61141391905b8082111561140f5760008160009055506001016113f7565b5090565b90565b61143891905b8082111561143457600081600090555060010161141c565b5090565b9056fea265627a7a723158206f3b6187a25454ae7ac0fe585203505628a7c3b5e7dca5fc02993e5ecfc5f4dd64736f6c63430005100032",
  "source": "pragma solidity ^0.5.1;\n\ncontract Voting {\n\n    event Bool(bool judge);\n    event VotesCounts(uint256 _votesReceived);\n    // 投票用紙情報をまとめた構造体\n    struct Ballot {\n        uint8 ballotType;   // 投票用紙の形式? election(選択式) or poll(記述式) \n        uint32 ballotId;    // 特定のVotingコントラクトにアクセスするための値\n        uint8 voteLimit;    // 投票回数?\n        uint32 timeLimit;   // 投票期間?\n        string title;       // タイトル\n        uint8 whitelist;    // 不明\n    }\n\n    // 候補者情報をまとめた構造体\n    struct Candidates {\n        bytes32[] candidateList;    // 候補者リストを配列で保存\n        mapping (bytes32 => bytes32) candidateHash; // bytes32型の候補者名とstring型の候補者名のハッシュ値の対応付け: candidateHash[candidateList[i]] => keccak256[string型の候補者名]\n        mapping (bytes32 => uint256) votesReceived; // 候補者のハッシュ値と\n    }\n\n    // 投票者情報をまとめた構造体\n    struct Voter {\n        bytes32[] whitelisted;                       // ホワイトリストのemailアドレス \n        mapping (address => uint8) attemptedVotes;  // 各アドレスに対応する投票者の現在の投票回数\n    }\n\n    Candidates c;   // 候補者情報をまとめた構造体\n    Voter v;        // 投票者情報をまとめた構造体\n    Ballot b;       // 投票用紙情報をまとめた構造体\n\n    string convertCandidate;    // bytes32型で保存されている候補者名をstring型に変換したもの\n    string tempTitle;           // titleを一時格納\n    bytes32 tempCandidate;      // 候補者を一時格納\n    uint256 tempVote;           // votesReceivedに格納されている値を一時格納\n    bytes32 tempHash;           // ハッシュ値を一時格納\n    uint256[] tempVotes;        // votesReceivedを一時格納\n    bytes32[] tempCandidates;   // 候補者リストを一時格納\n    bytes32 tempEmail;          // メールアドレス格納\n    address owner;              // 管理者のアドレス\n\n    // コンストラクタ : コントラクトを作成する際に呼び出される. いくつかのパラメータの初期値を設定\n    // uint32 _timeLimit  : 投票期間?\n    // uint8  _ballotType : 投票用紙の形式? election(選択式) or poll(記述式) \n    // uint8  _voteLimit  : 投票回数?\n    // uint32 _ballotId   : 特定のVotingコントラクトにアクセスするための値\n    // stting _title      : タイトル\n    // uint8 _whitelisted : 不明\n    // address _owner     : 管理者のアドレス\n    constructor (uint32 _timeLimit, uint8 _ballotType, uint8 _voteLimit, uint32 _ballotId, string memory _title, uint8 _whitelist, address _owner) public {\n        // 投票用紙情報をまとめている構造体bに各パラメータを設定\n        b.timeLimit = _timeLimit;   \n        b.ballotType = _ballotType;\n        b.voteLimit = _voteLimit;\n        b.ballotId = _ballotId;\n        b.title = _title;\n        b.whitelist = _whitelist;\n\n        owner = _owner; // 管理者のアドレスを格納\n    }\n\n    // modifier処理を設定\n    // このmodifierがついたメソッドを呼び出したユーザーが管理者アドレスと一致するかを確認する. \n    // 一致すれば処理を続行, 一致しなければ処理をその時点で終了し, contractの状態を実行前に戻す\n    modifier onlyOwner {\n        require(msg.sender == owner);\n        _;\n    }\n\n    // 候補者リストの設定を行う : 管理者のみ実行可能\n    // bytes32[] _candidates : 候補者リスト\n    function setCandidates(bytes32[] memory _candidates) public onlyOwner {\n        for(uint i = 0; i < _candidates.length; i++) {\n            tempCandidate = _candidates[i]; // i番目の候補者を一時保存\n            c.candidateList.push(tempCandidate);    // 候補者情報をまとめた構造体cのメンバ変数candidateListにtempCandidateを追加\n        }\n    }\n\n    // whitelistedの設定を行う : 管理者のみ実行可能\n    // bytes32[] _emails      : whitelistedに追加したいメールアドレスリスト\n    function setWhitelisted(bytes32[] memory _emails) public onlyOwner {\n        for(uint i = 0; i < _emails.length; i++) {\n            tempEmail = _emails[i]; // i番目のメールアドレスを一時保存\n            v.whitelisted.push(tempEmail);  // 投票者情報をまとめた構造体vのメンバ変数whitelistedにtempEmailを追加\n        }\n    }\n\n    // 候補者リストに格納されている候補者名をハッシュ化していく\n    function hashCandidates() public onlyOwner {\n        tempVote = 1;   // 初期値\n        for(uint i = 0; i < c.candidateList.length; i++) {\n            tempCandidate = c.candidateList[i]; // 候補者情報をまとめた構造体cのメンバ変数candidateListのi番目の値を一時保存\n            convertCandidate = bytes32ToString(tempCandidate);  // tempCandidateに格納されている候補者名をstring型に変換する\n            c.candidateHash[tempCandidate] = keccak256(abi.encode(convertCandidate));   // bytes32の候補者名とstring型の候補者名をkeccak256でハッシュ化したものの対応付け\n            c.votesReceived[keccak256(abi.encode(convertCandidate))] = tempVote;    // 候補者名をkeccak256でハッシュ化したものと, tempVote = 1を対応付け\n        }\n    }\n\n    // uint256[] _votes : 投票内容?\n    // bytes32[] _candidates : 投票者が使用した候補者リスト\n    // bytes32 _email : 投票するユーザーのメールアドレス\n    function voteForCandidate(uint256[] memory _votes, bytes32 _email, bytes32[] memory _candidates) public {\n        if (checkTimelimit() == false || checkVoteattempts() == false) revert();        // 投票回数の上限に既に達しているか, 投票期間が終了していた場合処理を終了する. \n        if (checkWhitelist() == true && checkifWhitelisted(_email) == false) revert();  //  ホワイトリストに入力_emailが登録されていなかったら処理を終了する. \n        tempVotes = _votes;\n        tempCandidates = _candidates;       // 候補者リストを一時保存\n        v.attemptedVotes[msg.sender] += 1;  // このメソッドを呼び出したユーザ(投票した人)の投票回数を+1する\n\n        for(uint i = 0; i < tempCandidates.length; i++) {\n            tempCandidate = tempCandidates[i];  \n            tempHash = c.candidateHash[tempCandidate]; // 候補者名のハッシュ値を格納\n            if (validCandidate(tempHash) == false) revert();    // このコントラクトにある候補者リストにtempHashに対応する候補者が入っていなければ処理を終了する\n            tempVote = tempVotes[i];    \n            c.votesReceived[tempHash] = tempVote;   // 候補者に対応する投票結果を保存\n        }\n    }\n\n    // 入力bytes32 cHashに対応するvotesReceived(途中結果の投票数?)を出力する\n    function votesFor(bytes32 cHash) public view returns (uint256){\n        if (validCandidate(cHash) == false) revert();   // 入力されている候補者がこのコントラクトのリストに登録されていなければ処理を終了する. \n        // emit VotesCounts(c.votesReceived[cHash]); \n        return c.votesReceived[cHash];\n    }\n\n    // 入力bytes32 cHashに対応するvotesReceived(集計結果?)を出力する　\n    function totalVotesFor(bytes32 cHash) public view returns (uint256){\n        if (checkBallottype() == false && checkTimelimit() == true){\n            // emit VotesCounts(0); \n            return 0;   // 投票期間中で,   \n        } \n        if (validCandidate(cHash) == false) revert();   // 入力されている候補者がこのコントラクトのリストに登録されていなければ処理を終了する. \n        // emit VotesCounts(c.votesReceived[cHash]); \n        return c.votesReceived[cHash];  \n    }\n\n    // 入力値bytes32 xをstring型に変換\n    function bytes32ToString(bytes32 x) public view returns (string memory) {\n        bytes memory bytesString = new bytes(32);\n        uint charCount = 0;\n        for (uint j = 0; j < 32; j++) {\n            byte char = byte(bytes32(uint(x) * 2 ** (8 * j)));\n            if (char != 0) {\n                bytesString[charCount] = char;\n                charCount++;\n            }\n        }\n        bytes memory bytesStringTrimmed = new bytes(charCount);\n        for (uint j = 0; j < charCount; j++) {\n            bytesStringTrimmed[j] = bytesString[j];\n        }\n        return string(bytesStringTrimmed);\n    }\n\n    // 入力bytes32 cHash(候補者名のハッシュ値)が全候補者名のハッシュリストcandidateListの中に一致するものがあればtrue, なければfalse\n    function validCandidate(bytes32 cHash) public view returns (bool) {\n        for(uint k = 0; k < c.candidateList.length; k++) {\n            // tempCandidate = c.candidateList[k];\n            if (c.candidateHash[c.candidateList[k]] == cHash) {\n                // emit Bool(true); \n                return true;\n            }\n        }\n        // emit Bool(false); \n        return false;\n    }\n\n    // 設定されている候補者リストを出力する\n    // uint64 _ballotID : 投票用紙ID\n    function candidateList(uint64 _ballotID) public view returns (bytes32[] memory) {\n        if (checkballotID(_ballotID) == false) revert();    // 投票用紙IDが一致しなければ処理を中止する\n        return c.candidateList;\n    }\n\n    // 設定したタイムリミットに超えているかをチェックする : 現在のブロックに記録されているタイムスタンプで判断(block.timestamp 単位:seconds) https://zoom-blc.com/solidity-time-logic\n    // タイムリミットを超えていた場合: false\n    // タイムリミットを超えていない場合: true\n    function checkTimelimit() public view returns (bool) {\n        if (block.timestamp >= b.timeLimit) return false;   \n        else return true;\n    }\n\n    // 設定したballotTypeをチェックする. \n    function checkBallottype() public view returns (bool) {\n        if (b.ballotType == 1) return false;\n        else return true;\n    }\n\n    // 入力された投票用紙IDと最初に設定した投票用紙IDが一致するかをチェックする. \n    // 一致すればtrue, しなければfalse\n    function checkballotID(uint64 ballotID) public view returns (bool) {\n        if (ballotID == b.ballotId) return true;\n        else return false;\n    }\n\n    // このメソッドを呼び出したユーザーが, 投票回数の上限に達しているかをチェックする. \n    // 達していなければtrue, 達していればfalse\n    function checkVoteattempts() public view returns (bool) {\n        if (v.attemptedVotes[msg.sender] == b.voteLimit) return false;\n        else return true;\n    }\n\n    // whiletelistに格納されている値が1であればtrue, 1でなければfalse\n    function checkWhitelist() public view returns (bool) {\n        if (b.whitelist == 1) return true;\n        else return false;\n    }\n\n    // 入力値bytes32 emailが, whitelistedに登録されているかをチェックする. \n    // 登録されていればtrue, されていなければfalse\n    function checkifWhitelisted(bytes32 email) public returns (bool) {\n        for(uint j = 0; j < v.whitelisted.length; j++) {\n            // tempEmail = v.whitelisted[j];\n            if ( v.whitelisted[j] == email) {\n                // emit Bool(true); \n                return true;\n            }\n        }\n        // emit Bool(false); \n        return false;\n    }\n\n    // 設定されているタイムリミットを出力する\n    function getTimelimit() public view returns (uint32) {\n        return b.timeLimit;\n    }\n\n    // 設定されているタイトルを出力する\n    function getTitle() public view returns (string memory) {\n        return b.title;\n    }\n}\n\n//                         //\n//Start of Creator contract//\n//                         //\n\ncontract Creator {\n\n    event newVotingContractEvent(\n       address contractAddress\n    );\n\n    mapping (uint32 => Voting) contracts;  // Votingコントラクトのアドレスを登録. contracts[投票用紙ID(uint32)] => アドレスにアクセス\n    address owner;                          // 管理者のアドレス\n\n    // Votingコントラクトの設定パラメータを入力して作成, contractsに格納するメソッド\n    // uint32 _timeLimit  : 投票期間?\n    // uint8  _ballotType : 投票用紙の形式?  election(選択式)1 or poll(記述式)0 \n    // uint8  _voteLimit  : 投票回数?\n    // uint32 _ballotId   : 特定のVotingコントラクトにアクセスするための値\n    // string _title      : タイトル\n    // uint8 _whitelisted : 不明\n    function createBallot(uint32 _timeLimit, uint8 _ballotType, uint8 _voteLimit, uint32 _ballotId, string memory _title, uint8 _whitelisted) public {\n        owner = msg.sender;     // このメソッドを呼び出したアカウントのアドレスを格納\n        Voting newContract = new Voting(_timeLimit, _ballotType, _voteLimit, _ballotId, _title, _whitelisted, owner);\n        contracts[_ballotId] = newContract; // 作成したVotingコントラクトのアドレスを登録\n        emit newVotingContractEvent(address(newContract));\n    }\n\n    // 入力したidに対応したcontractsに格納されているVotingコントラクトアドレスを出力\n    function getAddress(uint32 id) public view returns(Voting contractAddress) {\n        return contracts[id];\n    }\n}\n",
  "sourcePath": "/Users/hmori/dev/tmp/BroncoVotes-web-mori/solidity/contracts/Creator.sol",
  "compiler": {
    "name": "solc",
    "version": "0.5.16+commit.9c3226ce.Emscripten.clang"
  },
  "schemaVersion": "3.4.1",
  "updatedAt": "2021-10-01T08:46:03.498Z",
  "networkType": "ethereum",
  "devdoc": {
    "methods": {}
  },
  "userdoc": {
    "methods": {}
  }
}