{
  "contractName": "Voting",
  "abi": [
    {
      "inputs": [
        {
          "internalType": "uint32",
          "name": "_timeLimit",
          "type": "uint32"
        },
        {
          "internalType": "uint8",
          "name": "_ballotType",
          "type": "uint8"
        },
        {
          "internalType": "uint8",
          "name": "_voteLimit",
          "type": "uint8"
        },
        {
          "internalType": "uint32",
          "name": "_ballotId",
          "type": "uint32"
        },
        {
          "internalType": "string",
          "name": "_title",
          "type": "string"
        },
        {
          "internalType": "uint8",
          "name": "_whiteListType",
          "type": "uint8"
        },
        {
          "internalType": "bytes32[]",
          "name": "_candidates",
          "type": "bytes32[]"
        },
        {
          "internalType": "bytes32[]",
          "name": "_whiteStuff",
          "type": "bytes32[]"
        },
        {
          "internalType": "address",
          "name": "_owner",
          "type": "address"
        }
      ],
      "payable": false,
      "stateMutability": "nonpayable",
      "type": "constructor"
    },
    {
      "anonymous": false,
      "inputs": [
        {
          "indexed": false,
          "internalType": "bool",
          "name": "judge",
          "type": "bool"
        }
      ],
      "name": "Bool",
      "type": "event"
    },
    {
      "anonymous": false,
      "inputs": [
        {
          "indexed": false,
          "internalType": "uint256",
          "name": "_votesReceived",
          "type": "uint256"
        }
      ],
      "name": "VotesCounts",
      "type": "event"
    },
    {
      "constant": false,
      "inputs": [
        {
          "internalType": "bytes32[]",
          "name": "_candidates",
          "type": "bytes32[]"
        }
      ],
      "name": "setCandidate",
      "outputs": [],
      "payable": false,
      "stateMutability": "nonpayable",
      "type": "function"
    },
    {
      "constant": false,
      "inputs": [
        {
          "internalType": "bytes32[]",
          "name": "_emails",
          "type": "bytes32[]"
        }
      ],
      "name": "setWhiteEmailAddress",
      "outputs": [],
      "payable": false,
      "stateMutability": "nonpayable",
      "type": "function"
    },
    {
      "constant": false,
      "inputs": [
        {
          "internalType": "bytes32[]",
          "name": "_domains",
          "type": "bytes32[]"
        }
      ],
      "name": "setWhiteDomain",
      "outputs": [],
      "payable": false,
      "stateMutability": "nonpayable",
      "type": "function"
    },
    {
      "constant": false,
      "inputs": [
        {
          "internalType": "bytes32[]",
          "name": "_emails",
          "type": "bytes32[]"
        }
      ],
      "name": "addWhiteEmailAddress",
      "outputs": [],
      "payable": false,
      "stateMutability": "nonpayable",
      "type": "function"
    },
    {
      "constant": false,
      "inputs": [
        {
          "internalType": "bytes32[]",
          "name": "_domains",
          "type": "bytes32[]"
        }
      ],
      "name": "addWhiteDomain",
      "outputs": [],
      "payable": false,
      "stateMutability": "nonpayable",
      "type": "function"
    },
    {
      "constant": false,
      "inputs": [],
      "name": "hashCandidates",
      "outputs": [],
      "payable": false,
      "stateMutability": "nonpayable",
      "type": "function"
    },
    {
      "constant": false,
      "inputs": [
        {
          "internalType": "uint256[]",
          "name": "_votes",
          "type": "uint256[]"
        },
        {
          "internalType": "bytes32",
          "name": "_email",
          "type": "bytes32"
        },
        {
          "internalType": "bytes32",
          "name": "_domain",
          "type": "bytes32"
        },
        {
          "internalType": "bytes32[]",
          "name": "_candidates",
          "type": "bytes32[]"
        }
      ],
      "name": "voteForCandidate",
      "outputs": [],
      "payable": false,
      "stateMutability": "nonpayable",
      "type": "function"
    },
    {
      "constant": true,
      "inputs": [
        {
          "internalType": "bytes32",
          "name": "cHash",
          "type": "bytes32"
        }
      ],
      "name": "votesFor",
      "outputs": [
        {
          "internalType": "uint256",
          "name": "",
          "type": "uint256"
        }
      ],
      "payable": false,
      "stateMutability": "view",
      "type": "function"
    },
    {
      "constant": true,
      "inputs": [
        {
          "internalType": "bytes32",
          "name": "cHash",
          "type": "bytes32"
        }
      ],
      "name": "totalVotesFor",
      "outputs": [
        {
          "internalType": "uint256",
          "name": "",
          "type": "uint256"
        }
      ],
      "payable": false,
      "stateMutability": "view",
      "type": "function"
    },
    {
      "constant": false,
      "inputs": [
        {
          "internalType": "bytes32",
          "name": "_email",
          "type": "bytes32"
        },
        {
          "internalType": "uint16",
          "name": "_idnum",
          "type": "uint16"
        },
        {
          "internalType": "bytes32",
          "name": "_domain",
          "type": "bytes32"
        }
      ],
      "name": "registerVoter",
      "outputs": [],
      "payable": false,
      "stateMutability": "nonpayable",
      "type": "function"
    },
    {
      "constant": true,
      "inputs": [
        {
          "internalType": "bytes32",
          "name": "_email",
          "type": "bytes32"
        },
        {
          "internalType": "uint16",
          "name": "_idnum",
          "type": "uint16"
        }
      ],
      "name": "checkReg",
      "outputs": [
        {
          "internalType": "bool",
          "name": "",
          "type": "bool"
        }
      ],
      "payable": false,
      "stateMutability": "view",
      "type": "function"
    },
    {
      "constant": true,
      "inputs": [
        {
          "internalType": "bytes32",
          "name": "email",
          "type": "bytes32"
        }
      ],
      "name": "checkVoter",
      "outputs": [
        {
          "internalType": "uint8",
          "name": "",
          "type": "uint8"
        }
      ],
      "payable": false,
      "stateMutability": "view",
      "type": "function"
    },
    {
      "constant": true,
      "inputs": [
        {
          "internalType": "bytes32",
          "name": "x",
          "type": "bytes32"
        }
      ],
      "name": "bytes32ToString",
      "outputs": [
        {
          "internalType": "string",
          "name": "",
          "type": "string"
        }
      ],
      "payable": false,
      "stateMutability": "pure",
      "type": "function"
    },
    {
      "constant": true,
      "inputs": [
        {
          "internalType": "bytes32",
          "name": "cHash",
          "type": "bytes32"
        }
      ],
      "name": "validCandidate",
      "outputs": [
        {
          "internalType": "bool",
          "name": "",
          "type": "bool"
        }
      ],
      "payable": false,
      "stateMutability": "view",
      "type": "function"
    },
    {
      "constant": true,
      "inputs": [
        {
          "internalType": "uint64",
          "name": "_ballotID",
          "type": "uint64"
        }
      ],
      "name": "getCandidateList",
      "outputs": [
        {
          "internalType": "bytes32[]",
          "name": "",
          "type": "bytes32[]"
        }
      ],
      "payable": false,
      "stateMutability": "view",
      "type": "function"
    },
    {
      "constant": true,
      "inputs": [],
      "name": "checkTimelimit",
      "outputs": [
        {
          "internalType": "bool",
          "name": "",
          "type": "bool"
        }
      ],
      "payable": false,
      "stateMutability": "view",
      "type": "function"
    },
    {
      "constant": true,
      "inputs": [],
      "name": "checkBallottype",
      "outputs": [
        {
          "internalType": "bool",
          "name": "",
          "type": "bool"
        }
      ],
      "payable": false,
      "stateMutability": "view",
      "type": "function"
    },
    {
      "constant": true,
      "inputs": [
        {
          "internalType": "uint64",
          "name": "ballotID",
          "type": "uint64"
        }
      ],
      "name": "checkballotID",
      "outputs": [
        {
          "internalType": "bool",
          "name": "",
          "type": "bool"
        }
      ],
      "payable": false,
      "stateMutability": "view",
      "type": "function"
    },
    {
      "constant": true,
      "inputs": [],
      "name": "checkVoteattempts",
      "outputs": [
        {
          "internalType": "bool",
          "name": "",
          "type": "bool"
        }
      ],
      "payable": false,
      "stateMutability": "view",
      "type": "function"
    },
    {
      "constant": true,
      "inputs": [],
      "name": "usingWhiteEmailAddress",
      "outputs": [
        {
          "internalType": "bool",
          "name": "",
          "type": "bool"
        }
      ],
      "payable": false,
      "stateMutability": "view",
      "type": "function"
    },
    {
      "constant": true,
      "inputs": [],
      "name": "usingWhiteDomain",
      "outputs": [
        {
          "internalType": "bool",
          "name": "",
          "type": "bool"
        }
      ],
      "payable": false,
      "stateMutability": "view",
      "type": "function"
    },
    {
      "constant": true,
      "inputs": [
        {
          "internalType": "bytes32",
          "name": "email",
          "type": "bytes32"
        }
      ],
      "name": "whiteEmailAddressesIncludes",
      "outputs": [
        {
          "internalType": "bool",
          "name": "",
          "type": "bool"
        }
      ],
      "payable": false,
      "stateMutability": "view",
      "type": "function"
    },
    {
      "constant": true,
      "inputs": [
        {
          "internalType": "bytes32",
          "name": "_domain",
          "type": "bytes32"
        }
      ],
      "name": "whiteDomainsIncludes",
      "outputs": [
        {
          "internalType": "bool",
          "name": "",
          "type": "bool"
        }
      ],
      "payable": false,
      "stateMutability": "view",
      "type": "function"
    },
    {
      "constant": true,
      "inputs": [],
      "name": "getTimelimit",
      "outputs": [
        {
          "internalType": "uint32",
          "name": "",
          "type": "uint32"
        }
      ],
      "payable": false,
      "stateMutability": "view",
      "type": "function"
    },
    {
      "constant": true,
      "inputs": [],
      "name": "getTitle",
      "outputs": [
        {
          "internalType": "string",
          "name": "",
          "type": "string"
        }
      ],
      "payable": false,
      "stateMutability": "view",
      "type": "function"
    },
    {
      "constant": true,
      "inputs": [],
      "name": "getAddress",
      "outputs": [
        {
          "internalType": "address",
          "name": "",
          "type": "address"
        }
      ],
      "payable": false,
      "stateMutability": "view",
      "type": "function"
    },
    {
      "constant": false,
      "inputs": [],
      "name": "helloworld",
      "outputs": [],
      "payable": false,
      "stateMutability": "nonpayable",
      "type": "function"
    },
    {
      "constant": false,
      "inputs": [
        {
          "internalType": "string",
          "name": "_message",
          "type": "string"
        }
      ],
      "name": "setHelloworld",
      "outputs": [],
      "payable": false,
      "stateMutability": "nonpayable",
      "type": "function"
    },
    {
      "constant": true,
      "inputs": [],
      "name": "getHelloworld",
      "outputs": [
        {
          "internalType": "string",
          "name": "",
          "type": "string"
        }
      ],
      "payable": false,
      "stateMutability": "view",
      "type": "function"
    },
    {
      "constant": true,
      "inputs": [],
      "name": "getWhiteDomains",
      "outputs": [
        {
          "internalType": "bytes32[]",
          "name": "",
          "type": "bytes32[]"
        }
      ],
      "payable": false,
      "stateMutability": "view",
      "type": "function"
    },
    {
      "constant": true,
      "inputs": [],
      "name": "getWhiteEmailAddresses",
      "outputs": [
        {
          "internalType": "bytes32[]",
          "name": "",
          "type": "bytes32[]"
        }
      ],
      "payable": false,
      "stateMutability": "view",
      "type": "function"
    },
    {
      "constant": true,
      "inputs": [],
      "name": "getWhitelistType",
      "outputs": [
        {
          "internalType": "uint8",
          "name": "",
          "type": "uint8"
        }
      ],
      "payable": false,
      "stateMutability": "view",
      "type": "function"
    }
  ],
  "bytecode": "0x60806040523480156200001157600080fd5b50604051620031c9380380620031c983398181016040526101208110156200003857600080fd5b8101908080519060200190929190805190602001909291908051906020019092919080519060200190929190805160405193929190846401000000008211156200008157600080fd5b838201915060208201858111156200009857600080fd5b8251866001820283011164010000000082111715620000b657600080fd5b8083526020830192505050908051906020019080838360005b83811015620000ec578082015181840152602081019050620000cf565b50505050905090810190601f1680156200011a5780820380516001836020036101000a031916815260200191505b5060405260200180519060200190929190805160405193929190846401000000008211156200014857600080fd5b838201915060208201858111156200015f57600080fd5b82518660208202830111640100000000821117156200017d57600080fd5b8083526020830192505050908051906020019060200280838360005b83811015620001b657808201518184015260208101905062000199565b5050505090500160405260200180516040519392919084640100000000821115620001e057600080fd5b83820191506020820185811115620001f757600080fd5b82518660208202830111640100000000821117156200021557600080fd5b8083526020830192505050908051906020019060200280838360005b838110156200024e57808201518184015260208101905062000231565b505050509050016040526020018051906020019092919050505088600760000160066101000a81548163ffffffff021916908363ffffffff16021790555087600760000160006101000a81548160ff021916908360ff16021790555086600760000160056101000a81548160ff021916908360ff16021790555085600760000160016101000a81548163ffffffff021916908363ffffffff160217905550846007600101908051906020019062000307929190620008f0565b5083600760020160006101000a81548160ff021916908360ff16021790555060008090505b83518110156200038f578381815181106200034357fe5b6020026020010151600e8190555060008001600e54908060018154018082558091505090600182039060005260206000200160009091929091909150555080806001019150506200032c565b506001600f8190555060008090505b60008001805490508110156200059c57600080018181548110620003be57fe5b9060005260206000200154600e81905550620003e2600e546200075360201b60201c565b600c9080519060200190620003f9929190620008f0565b50600c60405160200180806020018281038252838181546001816001161561010002031660029004815260200191508054600181600116156101000203166002900480156200048c5780601f1062000460576101008083540402835291602001916200048c565b820191906000526020600020905b8154815290600101906020018083116200046e57829003601f168201915b5050925050506040516020818303038152906040528051906020012060006001016000600e54815260200190815260200160002081905550600f5460006002016000600c6040516020018080602001828103825283818154600181600116156101000203166002900481526020019150805460018160011615610100020316600290048015620005605780601f10620005345761010080835404028352916020019162000560565b820191906000526020600020905b8154815290600101906020018083116200054257829003601f168201915b5050925050506040516020818303038152906040528051906020012081526020019081526020016000208190555080806001019150506200039e565b5060018460ff161415620006125760008090505b82518110156200060b576007600301838281518110620005cc57fe5b602002602001015190806001815401808255809150509060018203906000526020600020016000909192909190915055508080600101915050620005b0565b5062000703565b60028460ff161415620006875760008090505b8251811015620006805760076004018382815181106200064157fe5b60200260200101519080600181540180825580915050906001820390600052602060002001600090919290919091505550808060010191505062000625565b5062000702565b60008460ff161462000701576040517f08c379a00000000000000000000000000000000000000000000000000000000081526004018080602001828103825260178152602001807f496e76616c69642077686974656c69737420747970652e00000000000000000081525060200191505060405180910390fd5b5b5b80601460006101000a81548173ffffffffffffffffffffffffffffffffffffffff021916908373ffffffffffffffffffffffffffffffffffffffff1602179055505050505050505050506200099f565b60608060206040519080825280601f01601f1916602001820160405280156200078b5781602001600182028038833980820191505090505b509050600080905060008090505b6020811015620008395760008160080260020a8660001c0260001b9050600060f81b817effffffffffffffffffffffffffffffffffffffffffffffffffffffffffffff1916146200082a5780848481518110620007f257fe5b60200101907effffffffffffffffffffffffffffffffffffffffffffffffffffffffffffff1916908160001a90535082806001019350505b50808060010191505062000799565b506060816040519080825280601f01601f191660200182016040528015620008705781602001600182028038833980820191505090505b50905060008090505b82811015620008e4578381815181106200088f57fe5b602001015160f81c60f81b828281518110620008a757fe5b60200101907effffffffffffffffffffffffffffffffffffffffffffffffffffffffffffff1916908160001a905350808060010191505062000879565b50809350505050919050565b828054600181600116156101000203166002900490600052602060002090601f016020900481019282601f106200093357805160ff191683800117855562000964565b8280016001018555821562000964579182015b828111156200096357825182559160200191906001019062000946565b5b50905062000973919062000977565b5090565b6200099c91905b80821115620009985760008160009055506001016200097e565b5090565b90565b61281a80620009af6000396000f3fe608060405234801561001057600080fd5b50600436106101f05760003560e01c80637ee4b0e51161010f578063d79b83e5116100a2578063eaebeb5011610071578063eaebeb5014610d06578063eda9daed14610d89578063f032bf9314610dd9578063ff3c1a8f14610dfb576101f0565b8063d79b83e514610ba9578063d992705c14610bcd578063e04a3dbd14610c2c578063e61c520614610ce4576101f0565b8063b02a61ed116100de578063b02a61ed146109ce578063c91018a014610a86578063d005bb8a14610aa8578063d088052914610b63576101f0565b80637ee4b0e5146106f85780639201de5514610858578063922133e3146108ff5780639244a9bd14610941576101f0565b806354213d1c1161018757806367bf00711161015657806367bf0071146105ce5780636cb6aa97146106145780636cfd8b82146106cc5780636ec4847a146106d6576101f0565b806354213d1c146104e8578063555a1ad61461052e5780635b9eb76114610558578063646208581461057a576101f0565b80633456763b116101c35780633456763b146102e857806338cc4831146103a0578063392e6678146103ea57806343eba0e614610430576101f0565b8063138d9455146101f5578063291d24d11461023d5780632f265cf71461029c5780632f2f4859146102de575b600080fd5b6102216004803603602081101561020b57600080fd5b8101908080359060200190929190505050610e7e565b604051808260ff1660ff16815260200191505060405180910390f35b610245610f35565b6040518080602001828103825283818151815260200191508051906020019060200280838360005b8381101561028857808201518184015260208101905061026d565b505050509050019250505060405180910390f35b6102c8600480360360208110156102b257600080fd5b8101908080359060200190929190505050610f90565b6040518082815260200191505060405180910390f35b6102e661104a565b005b61039e600480360360208110156102fe57600080fd5b810190808035906020019064010000000081111561031b57600080fd5b82018360208201111561032d57600080fd5b8035906020019184602083028401116401000000008311171561034f57600080fd5b919080806020026020016040519081016040528093929190818152602001838360200280828437600081840152601f19601f820116905080830192505050505050509192919290505050611098565b005b6103a86111bd565b604051808273ffffffffffffffffffffffffffffffffffffffff1673ffffffffffffffffffffffffffffffffffffffff16815260200191505060405180910390f35b6104166004803603602081101561040057600080fd5b81019080803590602001909291905050506111c5565b604051808215151515815260200191505060405180910390f35b6104e66004803603602081101561044657600080fd5b810190808035906020019064010000000081111561046357600080fd5b82018360208201111561047557600080fd5b8035906020019184602083028401116401000000008311171561049757600080fd5b919080806020026020016040519081016040528093929190818152602001838360200280828437600081840152601f19601f820116905080830192505050505050509192919290505050611235565b005b61052c600480360360608110156104fe57600080fd5b8101908080359060200190929190803561ffff1690602001909291908035906020019092919050505061135a565b005b61053661151e565b604051808263ffffffff1663ffffffff16815260200191505060405180910390f35b61056061153b565b604051808215151515815260200191505060405180910390f35b6105b46004803603604081101561059057600080fd5b8101908080359060200190929190803561ffff169060200190929190505050611570565b604051808215151515815260200191505060405180910390f35b6105fa600480360360208110156105e457600080fd5b81019080803590602001909291905050506115e1565b604051808215151515815260200191505060405180910390f35b6106ca6004803603602081101561062a57600080fd5b810190808035906020019064010000000081111561064757600080fd5b82018360208201111561065957600080fd5b8035906020019184602083028401116401000000008311171561067b57600080fd5b919080806020026020016040519081016040528093929190818152602001838360200280828437600081840152601f19601f82011690508083019250505050505050919291929050505061163d565b005b6106d461176a565b005b6106de611a27565b604051808215151515815260200191505060405180910390f35b6108566004803603608081101561070e57600080fd5b810190808035906020019064010000000081111561072b57600080fd5b82018360208201111561073d57600080fd5b8035906020019184602083028401116401000000008311171561075f57600080fd5b919080806020026020016040519081016040528093929190818152602001838360200280828437600081840152601f19601f8201169050808301925050505050505091929192908035906020019092919080359060200190929190803590602001906401000000008111156107d357600080fd5b8201836020820111156107e557600080fd5b8035906020019184602083028401116401000000008311171561080757600080fd5b919080806020026020016040519081016040528093929190818152602001838360200280828437600081840152601f19601f820116905080830192505050505050509192919290505050611aa9565b005b6108846004803603602081101561086e57600080fd5b8101908080359060200190929190505050611e4c565b6040518080602001828103825283818151815260200191508051906020019080838360005b838110156108c45780820151818401526020810190506108a9565b50505050905090810190601f1680156108f15780820380516001836020036101000a031916815260200191505b509250505060405180910390f35b61092b6004803603602081101561091557600080fd5b8101908080359060200190929190505050611fdf565b6040518082815260200191505060405180910390f35b6109776004803603602081101561095757600080fd5b81019080803567ffffffffffffffff169060200190929190505050612064565b6040518080602001828103825283818151815260200191508051906020019060200280838360005b838110156109ba57808201518184015260208101905061099f565b505050509050019250505060405180910390f35b610a84600480360360208110156109e457600080fd5b8101908080359060200190640100000000811115610a0157600080fd5b820183602082011115610a1357600080fd5b80359060200191846020830284011164010000000083111715610a3557600080fd5b919080806020026020016040519081016040528093929190818152602001838360200280828437600081840152601f19601f820116905080830192505050505050509192919290505050612143565b005b610a8e612212565b604051808215151515815260200191505060405180910390f35b610b6160048036036020811015610abe57600080fd5b8101908080359060200190640100000000811115610adb57600080fd5b820183602082011115610aed57600080fd5b80359060200191846001830284011164010000000083111715610b0f57600080fd5b91908080601f016020809104026020016040519081016040528093929190818152602001838380828437600081840152601f19601f820116905080830192505050505050509192919290505050612243565b005b610b8f60048036036020811015610b7957600080fd5b810190808035906020019092919050505061225d565b604051808215151515815260200191505060405180910390f35b610bb16122b9565b604051808260ff1660ff16815260200191505060405180910390f35b610bd56122d3565b6040518080602001828103825283818151815260200191508051906020019060200280838360005b83811015610c18578082015181840152602081019050610bfd565b505050509050019250505060405180910390f35b610ce260048036036020811015610c4257600080fd5b8101908080359060200190640100000000811115610c5f57600080fd5b820183602082011115610c7157600080fd5b80359060200191846020830284011164010000000083111715610c9357600080fd5b919080806020026020016040519081016040528093929190818152602001838360200280828437600081840152601f19601f82011690508083019250505050505050919291929050505061232e565b005b610cec6123fd565b604051808215151515815260200191505060405180910390f35b610d0e61242e565b6040518080602001828103825283818151815260200191508051906020019080838360005b83811015610d4e578082015181840152602081019050610d33565b50505050905090810190601f168015610d7b5780820380516001836020036101000a031916815260200191505b509250505060405180910390f35b610dbf60048036036020811015610d9f57600080fd5b81019080803567ffffffffffffffff1690602001909291905050506124d0565b604051808215151515815260200191505060405180910390f35b610de1612512565b604051808215151515815260200191505060405180910390f35b610e03612543565b6040518080602001828103825283818151815260200191508051906020019080838360005b83811015610e43578082015181840152602081019050610e28565b50505050905090810190601f168015610e705780820380516001836020036101000a031916815260200191505b509250505060405180910390f35b6000806003600201600084815260200190815260200160002060009054906101000a900461ffff1661ffff161415610eb95760019050610f30565b3373ffffffffffffffffffffffffffffffffffffffff166003600101600084815260200190815260200160002060009054906101000a900473ffffffffffffffffffffffffffffffffffffffff1673ffffffffffffffffffffffffffffffffffffffff1614610f2b5760029050610f30565b600090505b919050565b60606007600401805480602002602001604051908101604052809291908181526020018280548015610f8657602002820191906000526020600020905b815481526020019060010190808311610f72575b5050505050905090565b6000801515610f9d612212565b1515148015610fb7575060011515610fb361153b565b1515145b15610fc55760009050611045565b60001515610fd2836111c5565b1515141561102b576040517f08c379a000000000000000000000000000000000000000000000000000000000815260040180806020018281038252602d81526020018061274d602d913960400191505060405180910390fd5b600060020160008381526020019081526020016000205490505b919050565b6040518060400160405280600c81526020017f48656c6c6f20576f726c64210000000000000000000000000000000000000000815250601590805190602001906110959291906125e8565b50565b601460009054906101000a900473ffffffffffffffffffffffffffffffffffffffff1673ffffffffffffffffffffffffffffffffffffffff163373ffffffffffffffffffffffffffffffffffffffff161461115b576040517f08c379a00000000000000000000000000000000000000000000000000000000081526004018080602001828103825260168152602001807f53656e646572206e6f7420617574686f72697a65642e0000000000000000000081525060200191505060405180910390fd5b60008090505b81518110156111b957600760040182828151811061117b57fe5b602002602001015190806001815401808255809150509060018203906000526020600020016000909192909190915055508080600101915050611161565b5050565b600030905090565b600080600090505b600080018054905081101561122a5782600060010160008060000184815481106111f357fe5b9060005260206000200154815260200190815260200160002054141561121d576001915050611230565b80806001019150506111cd565b50600090505b919050565b601460009054906101000a900473ffffffffffffffffffffffffffffffffffffffff1673ffffffffffffffffffffffffffffffffffffffff163373ffffffffffffffffffffffffffffffffffffffff16146112f8576040517f08c379a00000000000000000000000000000000000000000000000000000000081526004018080602001828103825260168152602001807f53656e646572206e6f7420617574686f72697a65642e0000000000000000000081525060200191505060405180910390fd5b60008090505b815181101561135657600760030182828151811061131857fe5b6020026020010151908060018154018082558091505090600182039060005260206000200160009091929091909150555080806001019150506112fe565b5050565b600115156113666123fd565b151514801561138157506000151561137d8461225d565b1515145b156113d7576040517f08c379a000000000000000000000000000000000000000000000000000000000815260040180806020018281038252602181526020018061277a6021913960400191505060405180910390fd5b600115156113e3612512565b15151480156113fe5750600015156113fa826115e1565b1515145b15611471576040517f08c379a00000000000000000000000000000000000000000000000000000000081526004018080602001828103825260198152602001807f446f6d61696e206973206e6f7420776869746c69737465642e0000000000000081525060200191505060405180910390fd5b816003600201600085815260200190815260200160002060006101000a81548161ffff021916908361ffff160217905550336003600101600085815260200190815260200160002060006101000a81548173ffffffffffffffffffffffffffffffffffffffff021916908373ffffffffffffffffffffffffffffffffffffffff160217905550826003800160008461ffff1661ffff16815260200190815260200160002081905550505050565b6000600760000160069054906101000a900463ffffffff16905090565b6000600760000160069054906101000a900463ffffffff1663ffffffff164210611568576000905061156d565b600190505b90565b6000806003600201600085815260200190815260200160002060009054906101000a900461ffff1661ffff161480156115c857506000801b6003800160008461ffff1661ffff16815260200190815260200160002054145b156115d657600190506115db565b600090505b92915050565b600080600090505b60076004018054905081101561163257826007600401828154811061160a57fe5b90600052602060002001541415611625576001915050611638565b80806001019150506115e9565b50600090505b919050565b601460009054906101000a900473ffffffffffffffffffffffffffffffffffffffff1673ffffffffffffffffffffffffffffffffffffffff163373ffffffffffffffffffffffffffffffffffffffff1614611700576040517f08c379a00000000000000000000000000000000000000000000000000000000081526004018080602001828103825260168152602001807f53656e646572206e6f7420617574686f72697a65642e0000000000000000000081525060200191505060405180910390fd5b60008090505b81518110156117665781818151811061171b57fe5b6020026020010151600e8190555060008001600e5490806001815401808255809150509060018203906000526020600020016000909192909190915055508080600101915050611706565b5050565b601460009054906101000a900473ffffffffffffffffffffffffffffffffffffffff1673ffffffffffffffffffffffffffffffffffffffff163373ffffffffffffffffffffffffffffffffffffffff161461182d576040517f08c379a00000000000000000000000000000000000000000000000000000000081526004018080602001828103825260168152602001807f53656e646572206e6f7420617574686f72697a65642e0000000000000000000081525060200191505060405180910390fd5b6001600f8190555060008090505b6000800180549050811015611a245760008001818154811061185957fe5b9060005260206000200154600e81905550611875600e54611e4c565b600c908051906020019061188a9291906125e8565b50600c60405160200180806020018281038252838181546001816001161561010002031660029004815260200191508054600181600116156101000203166002900480156119195780601f106118ee57610100808354040283529160200191611919565b820191906000526020600020905b8154815290600101906020018083116118fc57829003601f168201915b5050925050506040516020818303038152906040528051906020012060006001016000600e54815260200190815260200160002081905550600f5460006002016000600c60405160200180806020018281038252838181546001816001161561010002031660029004815260200191508054600181600116156101000203166002900480156119e95780601f106119be576101008083540402835291602001916119e9565b820191906000526020600020905b8154815290600101906020018083116119cc57829003601f168201915b50509250505060405160208183030381529060405280519060200120815260200190815260200160002081905550808060010191505061183b565b50565b6000600760000160059054906101000a900460ff1660ff16600360000160003373ffffffffffffffffffffffffffffffffffffffff1673ffffffffffffffffffffffffffffffffffffffff16815260200190815260200160002060009054906101000a900460ff1660ff161415611aa15760009050611aa6565b600190505b90565b60001515611ab561153b565b15151415611b2b576040517f08c379a000000000000000000000000000000000000000000000000000000000815260040180806020018281038252601f8152602001807f5468652074696d6520666f7220766f74696e6720686173207061737365642e0081525060200191505060405180910390fd5b60001515611b37611a27565b15151415611b90576040517f08c379a000000000000000000000000000000000000000000000000000000000815260040180806020018281038252602981526020018061279b6029913960400191505060405180910390fd5b60011515611b9c6123fd565b1515148015611bb7575060001515611bb38461225d565b1515145b15611c0d576040517f08c379a00000000000000000000000000000000000000000000000000000000081526004018080602001828103825260228152602001806127c46022913960400191505060405180910390fd5b60011515611c19612512565b1515148015611c34575060001515611c30836115e1565b1515145b15611ca7576040517f08c379a000000000000000000000000000000000000000000000000000000000815260040180806020018281038252601a8152602001807f446f6d61696e206973206e6f742077686974656c69737465642e00000000000081525060200191505060405180910390fd5b8360119080519060200190611cbd929190612668565b508060129080519060200190611cd49291906126b5565b506001600360000160003373ffffffffffffffffffffffffffffffffffffffff1673ffffffffffffffffffffffffffffffffffffffff16815260200190815260200160002060008282829054906101000a900460ff160192506101000a81548160ff021916908360ff16021790555060008090505b601280549050811015611e455760128181548110611d6357fe5b9060005260206000200154600e8190555060006001016000600e5481526020019081526020016000205460108190555060001515611da26010546111c5565b15151415611dfb576040517f08c379a000000000000000000000000000000000000000000000000000000000815260040180806020018281038252602d81526020018061274d602d913960400191505060405180910390fd5b60118181548110611e0857fe5b9060005260206000200154600f81905550600f54600060020160006010548152602001908152602001600020819055508080600101915050611d49565b5050505050565b60608060206040519080825280601f01601f191660200182016040528015611e835781602001600182028038833980820191505090505b509050600080905060008090505b6020811015611f2d5760008160080260020a8660001c0260001b9050600060f81b817effffffffffffffffffffffffffffffffffffffffffffffffffffffffffffff191614611f1f5780848481518110611ee757fe5b60200101907effffffffffffffffffffffffffffffffffffffffffffffffffffffffffffff1916908160001a90535082806001019350505b508080600101915050611e91565b506060816040519080825280601f01601f191660200182016040528015611f635781602001600182028038833980820191505090505b50905060008090505b82811015611fd357838181518110611f8057fe5b602001015160f81c60f81b828281518110611f9757fe5b60200101907effffffffffffffffffffffffffffffffffffffffffffffffffffffffffffff1916908160001a9053508080600101915050611f6c565b50809350505050919050565b6000801515611fed836111c5565b15151415612046576040517f08c379a000000000000000000000000000000000000000000000000000000000815260040180806020018281038252602d81526020018061274d602d913960400191505060405180910390fd5b60006002016000838152602001908152602001600020549050919050565b606060001515612073836124d0565b151514156120e9576040517f08c379a00000000000000000000000000000000000000000000000000000000081526004018080602001828103825260178152602001807f42616c6c6f74494420646f6573206e6f74206d6174636800000000000000000081525060200191505060405180910390fd5b6000800180548060200260200160405190810160405280929190818152602001828054801561213757602002820191906000526020600020905b815481526020019060010190808311612123575b50505050509050919050565b601460009054906101000a900473ffffffffffffffffffffffffffffffffffffffff1673ffffffffffffffffffffffffffffffffffffffff163373ffffffffffffffffffffffffffffffffffffffff1614612206576040517f08c379a00000000000000000000000000000000000000000000000000000000081526004018080602001828103825260168152602001807f53656e646572206e6f7420617574686f72697a65642e0000000000000000000081525060200191505060405180910390fd5b61220f81611098565b50565b60006001600760000160009054906101000a900460ff1660ff16141561223b5760009050612240565b600190505b90565b80601590805190602001906122599291906125e8565b5050565b600080600090505b6007600301805490508110156122ae57826007600301828154811061228657fe5b906000526020600020015414156122a15760019150506122b4565b8080600101915050612265565b50600090505b919050565b6000600760020160009054906101000a900460ff16905090565b6060600760030180548060200260200160405190810160405280929190818152602001828054801561232457602002820191906000526020600020905b815481526020019060010190808311612310575b5050505050905090565b601460009054906101000a900473ffffffffffffffffffffffffffffffffffffffff1673ffffffffffffffffffffffffffffffffffffffff163373ffffffffffffffffffffffffffffffffffffffff16146123f1576040517f08c379a00000000000000000000000000000000000000000000000000000000081526004018080602001828103825260168152602001807f53656e646572206e6f7420617574686f72697a65642e0000000000000000000081525060200191505060405180910390fd5b6123fa81611235565b50565b60006001600760020160009054906101000a900460ff1660ff161415612426576001905061242b565b600090505b90565b606060158054600181600116156101000203166002900480601f0160208091040260200160405190810160405280929190818152602001828054600181600116156101000203166002900480156124c65780601f1061249b576101008083540402835291602001916124c6565b820191906000526020600020905b8154815290600101906020018083116124a957829003601f168201915b5050505050905090565b6000600760000160019054906101000a900463ffffffff1663ffffffff168267ffffffffffffffff161415612508576001905061250d565b600090505b919050565b60006002600760020160009054906101000a900460ff1660ff16141561253b5760019050612540565b600090505b90565b606060076001018054600181600116156101000203166002900480601f0160208091040260200160405190810160405280929190818152602001828054600181600116156101000203166002900480156125de5780601f106125b3576101008083540402835291602001916125de565b820191906000526020600020905b8154815290600101906020018083116125c157829003601f168201915b5050505050905090565b828054600181600116156101000203166002900490600052602060002090601f016020900481019282601f1061262957805160ff1916838001178555612657565b82800160010185558215612657579182015b8281111561265657825182559160200191906001019061263b565b5b5090506126649190612702565b5090565b8280548282559060005260206000209081019282156126a4579160200282015b828111156126a3578251825591602001919060010190612688565b5b5090506126b19190612702565b5090565b8280548282559060005260206000209081019282156126f1579160200282015b828111156126f05782518255916020019190600101906126d5565b5b5090506126fe9190612727565b5090565b61272491905b80821115612720576000816000905550600101612708565b5090565b90565b61274991905b8082111561274557600081600090555060010161272d565b5090565b9056fe546869732069732061206e6f6e2d6578697374656e74206f7074696f6e2f63616e646964617465206e616d652e456d61696c2061646472657373206973206e6f742077686974656c69737465642e4d6178696d756d206e756d626572206f6620766f74657320686173206265656e20726561636865642e456d61696c2061646472657373206973206e6f742077686974656c6973747465642ea265627a7a723158202bd3a390e7176771d92fdb654b046dca999d250e62302bdf89795b9962a71bdd64736f6c63430005100032",
  "source": "pragma solidity >=0.5.1;\n\ncontract Voting {\n\n    event Bool(bool judge);\n    event VotesCounts(uint256 _votesReceived);\n    \n    // \n    struct Ballot {\n        uint8 ballotType;   // ? election() or poll()\n        uint32 ballotId;    // Voting\n        uint8 voteLimit;    // \n        uint32 timeLimit;   // \n        string title;       // \n        uint8 whiteListType;                        // Email\n        bytes32[] whiteEmailAddresses;              // Email\n        bytes32[] whiteDomains;                     // Email\n    }\n\n    // \n    struct Candidates {\n        bytes32[] candidateList;    // \n        // bytes3string: candidateHash[candidateList[i]] => keccak256[string]\n        mapping (bytes32 => bytes32) candidateHash;\n        mapping (bytes32 => uint256) votesReceived; // Hashed candidate names => vote counts\n    }\n\n    // \n    struct Voter {\n        mapping (address => uint8) attemptedVotes;  // \n        mapping (bytes32 => address) voterAddr;     // EmailEthreum\n        mapping (bytes32 => uint16) voterID;        // Email/ID\n        mapping (uint16 => bytes32) voterEmail;     // /IDEmail\n    }\n\n    Candidates c;   // \n    Voter v;        // \n    Ballot b;       // \n\n    string convertCandidate;    // bytes32string\n    string tempTitle;           // title\n    bytes32 tempCandidate;      // \n    uint256 tempVote;           // votesReceived\n    bytes32 tempHash;           // \n    uint256[] tempVotes;        // votesReceived\n    bytes32[] tempCandidates;   // \n    bytes32 tempEmail;          // \n    address owner;              // \n\n    /// @param _timeLimit Voting Period\n    /// @param _ballotType The format of the vote. 0: poll, 1: election\n    /// @param _voteLimit Maximum number of vote\n    /// @param _ballotId A value to access a specific Voting contract.\n    /// @param _title Title\n    /// @param _whiteListType Whitelist type. 0: Non-whitelist, 1: E-mail, 2: domain\n    /// @param _candidates Candisates or choices.\n    /// @param _whiteStuff Whitelisted E-mail addresses or domains. \n    /// @param _owner Administrator's address\n    constructor (uint32 _timeLimit, uint8 _ballotType, uint8 _voteLimit, uint32 _ballotId, string memory _title, uint8 _whiteListType, bytes32[] memory _candidates, bytes32[] memory _whiteStuff, address _owner)\n    public {\n        b.timeLimit = _timeLimit;\n        b.ballotType = _ballotType;\n        b.voteLimit = _voteLimit;\n        b.ballotId = _ballotId;\n        b.title = _title;\n        b.whiteListType = _whiteListType;\n        for(uint i = 0; i < _candidates.length; i++) {\n            tempCandidate = _candidates[i];\n            c.candidateList.push(tempCandidate);\n        }\n\n        /// @notice Hash the candidate's name. and initialize the number of votes received.\n        /// @dev The reason for the initial received value of 1: 1 == decrypted0.\n        /// Because using a cryptographic scheme that adds up exponents. (PAILLER cipher)\n        tempVote = 1;\n        for(uint i = 0; i < c.candidateList.length; i++) {\n            tempCandidate = c.candidateList[i];\n            convertCandidate = bytes32ToString(tempCandidate);\n            c.candidateHash[tempCandidate] = keccak256(abi.encode(convertCandidate));\n            c.votesReceived[keccak256(abi.encode(convertCandidate))] = tempVote;\n        }\n\n        if (_whiteListType == 1){\n            for(uint i = 0; i < _whiteStuff.length; i++) {\n                b.whiteEmailAddresses.push(_whiteStuff[i]);\n            }\n        } else if (_whiteListType == 2){\n            for(uint i = 0; i < _whiteStuff.length; i++) {\n                b.whiteDomains.push(_whiteStuff[i]);\n            }\n        } else if (_whiteListType != 0){\n            revert('Invalid whitelist type.');\n        }\n        owner = _owner;\n    }\n\n\n    modifier onlyOwner {\n        require(msg.sender == owner, \"Sender not authorized.\");\n        _;\n    }\n\n    // \n    // bytes32[] _candidates : \n    function setCandidate(bytes32[] memory _candidates) public onlyOwner {\n        for(uint i = 0; i < _candidates.length; i++) {\n            tempCandidate = _candidates[i]; // i\n            c.candidateList.push(tempCandidate);    // ccandidateListtempCandidate\n        }\n    }\n\n    /// @param _emails List of email addresses to be added to whiteEmailAddresses\n    function setWhiteEmailAddress(bytes32[] memory _emails) public onlyOwner {\n        for(uint i = 0; i < _emails.length; i++) {\n            b.whiteEmailAddresses.push(_emails[i]);  // vwhiteEmailAddressestempEmail\n        }\n    }\n\n    function setWhiteDomain(bytes32[] memory _domains) public onlyOwner {\n        for(uint i = 0; i < _domains.length; i++) {\n            b.whiteDomains.push(_domains[i]);\n        }\n    }\n\n    function addWhiteEmailAddress(bytes32[] memory _emails) public onlyOwner {\n        setWhiteEmailAddress(_emails);\n    }\n\n    function addWhiteDomain(bytes32[] memory _domains) public onlyOwner {\n        setWhiteDomain(_domains);\n    }\n\n    /// @notice Hash the candidate's name. and initialize the number of votes received.\n    /// @dev The reason for the initial received value of 1: 1 == decrypted0.\n    /// Because using a cryptographic scheme that adds up exponents. (PAILLER cipher)\n    function hashCandidates() public onlyOwner {\n        tempVote = 1;   // \n        for(uint i = 0; i < c.candidateList.length; i++) {\n            tempCandidate = c.candidateList[i]; // ccandidateListi\n            convertCandidate = bytes32ToString(tempCandidate);  // tempCandidatestring\n            c.candidateHash[tempCandidate] = keccak256(abi.encode(convertCandidate));   // bytes32stringkeccak256\n            c.votesReceived[keccak256(abi.encode(convertCandidate))] = tempVote;    // keccak256, tempVote = 1\n        }\n    }\n\n    // uint256[] _votes : \n    // bytes32[] _candidates : \n    // bytes32 _email : \n    function voteForCandidate(uint256[] memory _votes, bytes32 _email, bytes32 _domain, bytes32[] memory _candidates) public {\n        if (checkTimelimit() == false) revert('The time for voting has passed.');\n        if (checkVoteattempts() == false) revert('Maximum number of votes has been reached.');\n        if (usingWhiteEmailAddress() == true && whiteEmailAddressesIncludes(_email) == false) revert('Email address is not whitelistted.');\n        if (usingWhiteDomain() == true && whiteDomainsIncludes(_domain) == false) revert('Domain is not whitelisted.');\n        tempVotes = _votes;\n        tempCandidates = _candidates;       // \n        v.attemptedVotes[msg.sender] += 1;  // ()+1\n\n        for(uint i = 0; i < tempCandidates.length; i++) {\n            tempCandidate = tempCandidates[i];\n            tempHash = c.candidateHash[tempCandidate]; // \n            if (validCandidate(tempHash) == false) revert('This is a non-existent option/candidate name.');\n            tempVote = tempVotes[i];\n            c.votesReceived[tempHash] = tempVote;   // \n        }\n    }\n\n    // bytes32 cHashvotesReceived(?)\n    function votesFor(bytes32 cHash) public view returns (uint256){\n        if (validCandidate(cHash) == false) revert('This is a non-existent option/candidate name.');\n        // emit VotesCounts(c.votesReceived[cHash]);\n        return c.votesReceived[cHash];\n    }\n\n    // bytes32 cHashvotesReceived(?)\n    /// @return \n    function totalVotesFor(bytes32 cHash) public view returns (uint256){\n        if (checkBallottype() == false && checkTimelimit() == true){\n            // emit VotesCounts(0);\n            return 0;   // ,\n        }\n        if (validCandidate(cHash) == false) revert('This is a non-existent option/candidate name.');\n        // emit VotesCounts(c.votesReceived[cHash]);\n        return c.votesReceived[cHash];\n    }\n\n    function registerVoter(bytes32 _email, uint16 _idnum, bytes32 _domain) public {\n        if (usingWhiteEmailAddress() == true && whiteEmailAddressesIncludes(_email) == false) revert('Email address is not whitelisted.');\n        if (usingWhiteDomain() == true && whiteDomainsIncludes(_domain) == false) revert('Domain is not whitlisted.');\n        v.voterID[_email] = _idnum;           // Email/ID\n        v.voterAddr[_email] = msg.sender;    // EmailEtherum\n        v.voterEmail[_idnum] = _email;        // /IDEmail\n    }\n\n    // \n    // true, false\n    // bytes32 email : \n    // uint16 idnum  : /ID\n    function checkReg(bytes32 _email, uint16 _idnum) public view returns (bool) {\n        if (v.voterID[_email] == 0 && v.voterEmail[_idnum] == 0) return true;\n        else return false;\n    }\n\n    // \n    // bytes32 email : \n    function checkVoter(bytes32 email) public view returns (uint8) {\n        if (v.voterID[email] == 0) return 1;            // 1\n        // EthreumEthereum2\n        if (v.voterAddr[email] != msg.sender) return 2;\n        else return 0;  // 0\n    }\n\n    // bytes32 xstring\n    function bytes32ToString(bytes32 x) public pure returns (string memory) {\n        bytes memory bytesString = new bytes(32);\n        uint charCount = 0;\n        for (uint j = 0; j < 32; j++) {\n            byte char = byte(bytes32(uint(x) * 2 ** (8 * j)));\n            if (char != 0) {\n                bytesString[charCount] = char;\n                charCount++;\n            }\n        }\n        bytes memory bytesStringTrimmed = new bytes(charCount);\n        for (uint j = 0; j < charCount; j++) {\n            bytesStringTrimmed[j] = bytesString[j];\n        }\n        return string(bytesStringTrimmed);\n    }\n\n    // bytes32 cHash()candidateListtrue, false\n    function validCandidate(bytes32 cHash) public view returns (bool) {\n        for(uint k = 0; k < c.candidateList.length; k++) {\n            // tempCandidate = c.candidateList[k];\n            if (c.candidateHash[c.candidateList[k]] == cHash) {\n                // emit Bool(true);\n                return true;\n            }\n        }\n        // emit Bool(false);\n        return false;\n    }\n\n    // \n    // uint64 _ballotID : ID\n    function getCandidateList(uint64 _ballotID) public view returns (bytes32[] memory) {\n        if (checkballotID(_ballotID) == false) revert('BallotID does not match');\n        return c.candidateList;\n    }\n\n    //  : (block.timestamp :seconds) https://zoom-blc.com/solidity-time-logic\n    // : false\n    // : true\n    function checkTimelimit() public view returns (bool) {\n        if (block.timestamp >= b.timeLimit) return false;\n        else return true;\n    }\n\n    // ballotType.\n    function checkBallottype() public view returns (bool) {\n        if (b.ballotType == 1) return false;\n        else return true;\n    }\n\n    // IDID.\n    // true, false\n    function checkballotID(uint64 ballotID) public view returns (bool) {\n        if (ballotID == b.ballotId) return true;\n        else return false;\n    }\n\n    // , .\n    // true, false\n    function checkVoteattempts() public view returns (bool) {\n        if (v.attemptedVotes[msg.sender] == b.voteLimit) return false;\n        else return true;\n    }\n\n    function usingWhiteEmailAddress() public view returns (bool) {\n        if (b.whiteListType == 1) return true;\n        else return false;\n    }\n\n    function usingWhiteDomain() public view returns (bool) {\n        if (b.whiteListType == 2) return true;\n        else return false;\n    }\n\n    // bytes32 email, whiteEmailAddresses.\n    // true, false\n    function whiteEmailAddressesIncludes(bytes32 email) public view returns (bool) {\n        for(uint j = 0; j < b.whiteEmailAddresses.length; j++) {\n            if ( b.whiteEmailAddresses[j] == email) {\n                return true;\n            }\n        }\n        return false;\n    }\n\n    function whiteDomainsIncludes(bytes32 _domain) public view returns (bool) {\n        for(uint i = 0; i < b.whiteDomains.length; i++) {\n            if ( b.whiteDomains[i] == _domain) {\n                return true;\n            }\n        }\n        return false;\n    }\n\n    // \n    function getTimelimit() public view returns (uint32) {\n        return b.timeLimit;\n    }\n\n    // \n    function getTitle() public view returns (string memory) {\n        return b.title;\n    }\n\n    function getAddress()public view returns (address) {\n        return address(this);\n    }\n\n    // DEBUG\n\n    string message;\n\n    function helloworld() public {\n        message = \"Hello World!\";\n    }\n\n    function setHelloworld(string memory _message) public {\n        message = _message;\n    }\n\n    function getHelloworld() public view returns (string memory) {\n        return message;\n    }\n\n    function getWhiteDomains() public view returns (bytes32[] memory){\n        return b.whiteDomains;\n    }\n\n    function getWhiteEmailAddresses() public view returns (bytes32[] memory){\n        return b.whiteEmailAddresses;\n    }\n\n    function getWhitelistType() public view returns (uint8){\n        return b.whiteListType;\n    }\n}\n\n//                         //\n//Start of Creator contract//\n//                         //\n\ncontract Creator {\n\n    event newVotingContractEvent(\n       address contractAddress\n    );\n\n    mapping (uint32 => address) votes;      // Ballot ID => Voting conract address\n    mapping (address => uint32) ballotIds;  // Voting conract address => Ballot ID \n    \n    address owner;\n\n    function createBallot(uint32 _timeLimit, uint8 _ballotType, uint8 _voteLimit, uint32 _ballotId, string memory _title, uint8 _whiteListType, bytes32[] memory _candidates, bytes32[] memory _whiteStuff)\n    public {\n        Voting newVoting = new Voting(_timeLimit, _ballotType, _voteLimit, _ballotId, _title, _whiteListType, _candidates, _whiteStuff,  msg.sender);\n        votes[_ballotId] = address(newVoting);\n        ballotIds[address(newVoting)] = _ballotId;\n        emit newVotingContractEvent(address(newVoting));\n    }\n\n    function getAddress(uint32 _ballotId) public view returns(address) {\n        return votes[_ballotId];\n    }\n\n    function getBallotId(address _voting) public view returns(uint32 _ballotId) {\n        return ballotIds[_voting];\n    }\n}\n",
  "sourcePath": "/Users/hmori/dev/gifu_univ/BroncoVotes-mori/solidity/contracts/Creator.sol",
  "compiler": {
    "name": "solc",
    "version": "0.5.16+commit.9c3226ce.Emscripten.clang"
  },
  "schemaVersion": "3.4.1",
  "updatedAt": "2021-11-28T14:45:33.505Z",
  "networkType": "ethereum",
  "devdoc": {
    "methods": {
      "constructor": {
        "params": {
          "_ballotId": "A value to access a specific Voting contract.",
          "_ballotType": "The format of the vote. 0: poll, 1: election",
          "_candidates": "Candisates or choices.",
          "_owner": "Administrator's address",
          "_timeLimit": "Voting Period",
          "_title": "Title",
          "_voteLimit": "Maximum number of vote",
          "_whiteListType": "Whitelist type. 0: Non-whitelist, 1: E-mail, 2: domain",
          "_whiteStuff": "Whitelisted E-mail addresses or domains. "
        }
      },
      "hashCandidates()": {
        "details": "The reason for the initial received value of 1: 1 == decrypted0. Because using a cryptographic scheme that adds up exponents. (PAILLER cipher)"
      },
      "setWhiteEmailAddress(bytes32[])": {
        "params": {
          "_emails": "List of email addresses to be added to whiteEmailAddresses"
        }
      }
    }
  },
  "userdoc": {
    "methods": {
      "hashCandidates()": {
        "notice": "Hash the candidate's name. and initialize the number of votes received."
      }
    }
  }
}