{
  "contractName": "Creator",
  "abi": [
    {
      "anonymous": false,
      "inputs": [
        {
          "indexed": false,
          "internalType": "address",
          "name": "contractAddress",
          "type": "address"
        }
      ],
      "name": "newVotingContractEvent",
      "type": "event"
    },
    {
      "constant": false,
      "inputs": [
        {
          "internalType": "uint32",
          "name": "_timeLimit",
          "type": "uint32"
        },
        {
          "internalType": "uint8",
          "name": "_ballotType",
          "type": "uint8"
        },
        {
          "internalType": "uint8",
          "name": "_voteLimit",
          "type": "uint8"
        },
        {
          "internalType": "uint32",
          "name": "_ballotId",
          "type": "uint32"
        },
        {
          "internalType": "string",
          "name": "_title",
          "type": "string"
        },
        {
          "internalType": "uint8",
          "name": "_whiteListType",
          "type": "uint8"
        },
        {
          "internalType": "bytes32[]",
          "name": "_candidates",
          "type": "bytes32[]"
        },
        {
          "internalType": "bytes32[]",
          "name": "_whiteStuff",
          "type": "bytes32[]"
        }
      ],
      "name": "createBallot",
      "outputs": [],
      "payable": false,
      "stateMutability": "nonpayable",
      "type": "function"
    },
    {
      "constant": true,
      "inputs": [
        {
          "internalType": "uint32",
          "name": "_ballotId",
          "type": "uint32"
        }
      ],
      "name": "getAddress",
      "outputs": [
        {
          "internalType": "address",
          "name": "",
          "type": "address"
        }
      ],
      "payable": false,
      "stateMutability": "view",
      "type": "function"
    },
    {
      "constant": true,
      "inputs": [
        {
          "internalType": "address",
          "name": "_voting",
          "type": "address"
        }
      ],
      "name": "getBallotId",
      "outputs": [
        {
          "internalType": "uint32",
          "name": "_ballotId",
          "type": "uint32"
        }
      ],
      "payable": false,
      "stateMutability": "view",
      "type": "function"
    }
  ],
  "bytecode": "0x608060405234801561001057600080fd5b50613baa806100206000396000f3fe60806040523480156200001157600080fd5b5060043610620000465760003560e01c806368501aee146200004b5780638fffa6c714620000c2578063a8acb6411462000129575b600080fd5b62000080600480360360208110156200006357600080fd5b81019080803563ffffffff16906020019092919050505062000360565b604051808273ffffffffffffffffffffffffffffffffffffffff1673ffffffffffffffffffffffffffffffffffffffff16815260200191505060405180910390f35b6200010760048036036020811015620000da57600080fd5b81019080803573ffffffffffffffffffffffffffffffffffffffff169060200190929190505050620003a8565b604051808263ffffffff1663ffffffff16815260200191505060405180910390f35b6200035e60048036036101008110156200014257600080fd5b81019080803563ffffffff169060200190929190803560ff169060200190929190803560ff169060200190929190803563ffffffff169060200190929190803590602001906401000000008111156200019a57600080fd5b820183602082011115620001ad57600080fd5b80359060200191846001830284011164010000000083111715620001d057600080fd5b91908080601f016020809104026020016040519081016040528093929190818152602001838380828437600081840152601f19601f820116905080830192505050505050509192919290803560ff169060200190929190803590602001906401000000008111156200024157600080fd5b8201836020820111156200025457600080fd5b803590602001918460208302840111640100000000831117156200027757600080fd5b919080806020026020016040519081016040528093929190818152602001838360200280828437600081840152601f19601f82011690508083019250505050505050919291929080359060200190640100000000811115620002d857600080fd5b820183602082011115620002eb57600080fd5b803590602001918460208302840111640100000000831117156200030e57600080fd5b919080806020026020016040519081016040528093929190818152602001838360200280828437600081840152601f19601f82011690508083019250505050505050919291929050505062000401565b005b60008060008363ffffffff1663ffffffff16815260200190815260200160002060009054906101000a900473ffffffffffffffffffffffffffffffffffffffff169050919050565b6000600160008373ffffffffffffffffffffffffffffffffffffffff1673ffffffffffffffffffffffffffffffffffffffff16815260200190815260200160002060009054906101000a900463ffffffff169050919050565b60008888888888888888336040516200041a90620006e9565b808a63ffffffff1663ffffffff1681526020018960ff1660ff1681526020018860ff1660ff1681526020018763ffffffff1663ffffffff168152602001806020018660ff1660ff16815260200180602001806020018573ffffffffffffffffffffffffffffffffffffffff1673ffffffffffffffffffffffffffffffffffffffff168152602001848103845289818151815260200191508051906020019080838360005b83811015620004db578082015181840152602081019050620004be565b50505050905090810190601f168015620005095780820380516001836020036101000a031916815260200191505b50848103835287818151815260200191508051906020019060200280838360005b83811015620005475780820151818401526020810190506200052a565b50505050905001848103825286818151815260200191508051906020019060200280838360005b838110156200058b5780820151818401526020810190506200056e565b505050509050019c50505050505050505050505050604051809103906000f080158015620005bd573d6000803e3d6000fd5b509050806000808863ffffffff1663ffffffff16815260200190815260200160002060006101000a81548173ffffffffffffffffffffffffffffffffffffffff021916908373ffffffffffffffffffffffffffffffffffffffff16021790555085600160008373ffffffffffffffffffffffffffffffffffffffff1673ffffffffffffffffffffffffffffffffffffffff16815260200190815260200160002060006101000a81548163ffffffff021916908363ffffffff1602179055507f700e8ad80f90ddc90cb456c925b7a26c0954bf61fbbda37b359952c2db7762c981604051808273ffffffffffffffffffffffffffffffffffffffff1673ffffffffffffffffffffffffffffffffffffffff16815260200191505060405180910390a1505050505050505050565b61347e80620006f88339019056fe60806040523480156200001157600080fd5b506040516200347e3803806200347e83398181016040526101208110156200003857600080fd5b8101908080519060200190929190805190602001909291908051906020019092919080519060200190929190805160405193929190846401000000008211156200008157600080fd5b838201915060208201858111156200009857600080fd5b8251866001820283011164010000000082111715620000b657600080fd5b8083526020830192505050908051906020019080838360005b83811015620000ec578082015181840152602081019050620000cf565b50505050905090810190601f1680156200011a5780820380516001836020036101000a031916815260200191505b5060405260200180519060200190929190805160405193929190846401000000008211156200014857600080fd5b838201915060208201858111156200015f57600080fd5b82518660208202830111640100000000821117156200017d57600080fd5b8083526020830192505050908051906020019060200280838360005b83811015620001b657808201518184015260208101905062000199565b5050505090500160405260200180516040519392919084640100000000821115620001e057600080fd5b83820191506020820185811115620001f757600080fd5b82518660208202830111640100000000821117156200021557600080fd5b8083526020830192505050908051906020019060200280838360005b838110156200024e57808201518184015260208101905062000231565b505050509050016040526020018051906020019092919050505088600760000160066101000a81548163ffffffff021916908363ffffffff16021790555087600760000160006101000a81548160ff021916908360ff16021790555086600760000160056101000a81548160ff021916908360ff16021790555085600760000160016101000a81548163ffffffff021916908363ffffffff160217905550846007600101908051906020019062000307929190620008f0565b5083600760020160006101000a81548160ff021916908360ff16021790555060008090505b83518110156200038f578381815181106200034357fe5b6020026020010151600e8190555060008001600e54908060018154018082558091505090600182039060005260206000200160009091929091909150555080806001019150506200032c565b506001600f8190555060008090505b60008001805490508110156200059c57600080018181548110620003be57fe5b9060005260206000200154600e81905550620003e2600e546200075360201b60201c565b600c9080519060200190620003f9929190620008f0565b50600c60405160200180806020018281038252838181546001816001161561010002031660029004815260200191508054600181600116156101000203166002900480156200048c5780601f1062000460576101008083540402835291602001916200048c565b820191906000526020600020905b8154815290600101906020018083116200046e57829003601f168201915b5050925050506040516020818303038152906040528051906020012060006001016000600e54815260200190815260200160002081905550600f5460006002016000600c6040516020018080602001828103825283818154600181600116156101000203166002900481526020019150805460018160011615610100020316600290048015620005605780601f10620005345761010080835404028352916020019162000560565b820191906000526020600020905b8154815290600101906020018083116200054257829003601f168201915b5050925050506040516020818303038152906040528051906020012081526020019081526020016000208190555080806001019150506200039e565b5060018460ff161415620006125760008090505b82518110156200060b576007600301838281518110620005cc57fe5b602002602001015190806001815401808255809150509060018203906000526020600020016000909192909190915055508080600101915050620005b0565b5062000703565b60028460ff161415620006875760008090505b8251811015620006805760076004018382815181106200064157fe5b60200260200101519080600181540180825580915050906001820390600052602060002001600090919290919091505550808060010191505062000625565b5062000702565b60008460ff161462000701576040517f08c379a00000000000000000000000000000000000000000000000000000000081526004018080602001828103825260178152602001807f496e76616c69642077686974656c69737420747970652e00000000000000000081525060200191505060405180910390fd5b5b5b80601460006101000a81548173ffffffffffffffffffffffffffffffffffffffff021916908373ffffffffffffffffffffffffffffffffffffffff1602179055505050505050505050506200099f565b60608060206040519080825280601f01601f1916602001820160405280156200078b5781602001600182028038833980820191505090505b509050600080905060008090505b6020811015620008395760008160080260020a8660001c0260001b9050600060f81b817effffffffffffffffffffffffffffffffffffffffffffffffffffffffffffff1916146200082a5780848481518110620007f257fe5b60200101907effffffffffffffffffffffffffffffffffffffffffffffffffffffffffffff1916908160001a90535082806001019350505b50808060010191505062000799565b506060816040519080825280601f01601f191660200182016040528015620008705781602001600182028038833980820191505090505b50905060008090505b82811015620008e4578381815181106200088f57fe5b602001015160f81c60f81b828281518110620008a757fe5b60200101907effffffffffffffffffffffffffffffffffffffffffffffffffffffffffffff1916908160001a905350808060010191505062000879565b50809350505050919050565b828054600181600116156101000203166002900490600052602060002090601f016020900481019282601f106200093357805160ff191683800117855562000964565b8280016001018555821562000964579182015b828111156200096357825182559160200191906001019062000946565b5b50905062000973919062000977565b5090565b6200099c91905b80821115620009985760008160009055506001016200097e565b5090565b90565b612acf80620009af6000396000f3fe608060405234801561001057600080fd5b50600436106102065760003560e01c80637ee4b0e51161011a578063d79b83e5116100ad578063e61c52061161007c578063e61c520614610d8a578063eaebeb5014610dac578063eda9daed14610e2f578063f032bf9314610e7f578063ff3c1a8f14610ea157610206565b8063d79b83e514610c05578063d992705c14610c29578063e04a3dbd14610c88578063e556977314610d4057610206565b8063b02a61ed116100e9578063b02a61ed14610a2a578063c91018a014610ae2578063d005bb8a14610b04578063d088052914610bbf57610206565b80637ee4b0e5146107545780639201de55146108b4578063922133e31461095b5780639244a9bd1461099d57610206565b806354213d1c1161019d57806367bf00711161016c57806367bf0071146105e45780636cb6aa971461062a5780636cfd8b82146106e25780636ec4847a146106ec5780637e1f2ab31461070e57610206565b806354213d1c146104fe578063555a1ad6146105445780635b9eb7611461056e578063646208581461059057610206565b80633456763b116101d95780633456763b146102fe57806338cc4831146103b6578063392e66781461040057806343eba0e61461044657610206565b8063138d94551461020b578063291d24d1146102535780632f265cf7146102b25780632f2f4859146102f4575b600080fd5b6102376004803603602081101561022157600080fd5b8101908080359060200190929190505050610f24565b604051808260ff1660ff16815260200191505060405180910390f35b61025b610fdb565b6040518080602001828103825283818151815260200191508051906020019060200280838360005b8381101561029e578082015181840152602081019050610283565b505050509050019250505060405180910390f35b6102de600480360360208110156102c857600080fd5b8101908080359060200190929190505050611036565b6040518082815260200191505060405180910390f35b6102fc6110f0565b005b6103b46004803603602081101561031457600080fd5b810190808035906020019064010000000081111561033157600080fd5b82018360208201111561034357600080fd5b8035906020019184602083028401116401000000008311171561036557600080fd5b919080806020026020016040519081016040528093929190818152602001838360200280828437600081840152601f19601f82011690508083019250505050505050919291929050505061113e565b005b6103be611263565b604051808273ffffffffffffffffffffffffffffffffffffffff1673ffffffffffffffffffffffffffffffffffffffff16815260200191505060405180910390f35b61042c6004803603602081101561041657600080fd5b810190808035906020019092919050505061126b565b604051808215151515815260200191505060405180910390f35b6104fc6004803603602081101561045c57600080fd5b810190808035906020019064010000000081111561047957600080fd5b82018360208201111561048b57600080fd5b803590602001918460208302840111640100000000831117156104ad57600080fd5b919080806020026020016040519081016040528093929190818152602001838360200280828437600081840152601f19601f8201169050808301925050505050505091929192905050506112db565b005b6105426004803603606081101561051457600080fd5b8101908080359060200190929190803561ffff16906020019092919080359060200190929190505050611400565b005b61054c6115c4565b604051808263ffffffff1663ffffffff16815260200191505060405180910390f35b6105766115e1565b604051808215151515815260200191505060405180910390f35b6105ca600480360360408110156105a657600080fd5b8101908080359060200190929190803561ffff169060200190929190505050611616565b604051808215151515815260200191505060405180910390f35b610610600480360360208110156105fa57600080fd5b8101908080359060200190929190505050611687565b604051808215151515815260200191505060405180910390f35b6106e06004803603602081101561064057600080fd5b810190808035906020019064010000000081111561065d57600080fd5b82018360208201111561066f57600080fd5b8035906020019184602083028401116401000000008311171561069157600080fd5b919080806020026020016040519081016040528093929190818152602001838360200280828437600081840152601f19601f8201169050808301925050505050505091929192905050506116e3565b005b6106ea611810565b005b6106f4611acd565b604051808215151515815260200191505060405180910390f35b61073e6004803603602081101561072457600080fd5b81019080803561ffff169060200190929190505050611b4f565b6040518082815260200191505060405180910390f35b6108b26004803603608081101561076a57600080fd5b810190808035906020019064010000000081111561078757600080fd5b82018360208201111561079957600080fd5b803590602001918460208302840111640100000000831117156107bb57600080fd5b919080806020026020016040519081016040528093929190818152602001838360200280828437600081840152601f19601f82011690508083019250505050505050919291929080359060200190929190803590602001909291908035906020019064010000000081111561082f57600080fd5b82018360208201111561084157600080fd5b8035906020019184602083028401116401000000008311171561086357600080fd5b919080806020026020016040519081016040528093929190818152602001838360200280828437600081840152601f19601f820116905080830192505050505050509192919290505050611b76565b005b6108e0600480360360208110156108ca57600080fd5b8101908080359060200190929190505050612055565b6040518080602001828103825283818151815260200191508051906020019080838360005b83811015610920578082015181840152602081019050610905565b50505050905090810190601f16801561094d5780820380516001836020036101000a031916815260200191505b509250505060405180910390f35b6109876004803603602081101561097157600080fd5b81019080803590602001909291905050506121e8565b6040518082815260200191505060405180910390f35b6109d3600480360360208110156109b357600080fd5b81019080803567ffffffffffffffff16906020019092919050505061226d565b6040518080602001828103825283818151815260200191508051906020019060200280838360005b83811015610a165780820151818401526020810190506109fb565b505050509050019250505060405180910390f35b610ae060048036036020811015610a4057600080fd5b8101908080359060200190640100000000811115610a5d57600080fd5b820183602082011115610a6f57600080fd5b80359060200191846020830284011164010000000083111715610a9157600080fd5b919080806020026020016040519081016040528093929190818152602001838360200280828437600081840152601f19601f82011690508083019250505050505050919291929050505061234c565b005b610aea61241b565b604051808215151515815260200191505060405180910390f35b610bbd60048036036020811015610b1a57600080fd5b8101908080359060200190640100000000811115610b3757600080fd5b820183602082011115610b4957600080fd5b80359060200191846001830284011164010000000083111715610b6b57600080fd5b91908080601f016020809104026020016040519081016040528093929190818152602001838380828437600081840152601f19601f82011690508083019250505050505050919291929050505061244c565b005b610beb60048036036020811015610bd557600080fd5b8101908080359060200190929190505050612466565b604051808215151515815260200191505060405180910390f35b610c0d6124c2565b604051808260ff1660ff16815260200191505060405180910390f35b610c316124dc565b6040518080602001828103825283818151815260200191508051906020019060200280838360005b83811015610c74578082015181840152602081019050610c59565b505050509050019250505060405180910390f35b610d3e60048036036020811015610c9e57600080fd5b8101908080359060200190640100000000811115610cbb57600080fd5b820183602082011115610ccd57600080fd5b80359060200191846020830284011164010000000083111715610cef57600080fd5b919080806020026020016040519081016040528093929190818152602001838360200280828437600081840152601f19601f820116905080830192505050505050509192919290505050612537565b005b610d6c60048036036020811015610d5657600080fd5b8101908080359060200190929190505050612606565b604051808261ffff1661ffff16815260200191505060405180910390f35b610d92612634565b604051808215151515815260200191505060405180910390f35b610db4612665565b6040518080602001828103825283818151815260200191508051906020019080838360005b83811015610df4578082015181840152602081019050610dd9565b50505050905090810190601f168015610e215780820380516001836020036101000a031916815260200191505b509250505060405180910390f35b610e6560048036036020811015610e4557600080fd5b81019080803567ffffffffffffffff169060200190929190505050612707565b604051808215151515815260200191505060405180910390f35b610e87612749565b604051808215151515815260200191505060405180910390f35b610ea961277a565b6040518080602001828103825283818151815260200191508051906020019080838360005b83811015610ee9578082015181840152602081019050610ece565b50505050905090810190601f168015610f165780820380516001836020036101000a031916815260200191505b509250505060405180910390f35b6000806003600201600084815260200190815260200160002060009054906101000a900461ffff1661ffff161415610f5f5760019050610fd6565b3373ffffffffffffffffffffffffffffffffffffffff166003600101600084815260200190815260200160002060009054906101000a900473ffffffffffffffffffffffffffffffffffffffff1673ffffffffffffffffffffffffffffffffffffffff1614610fd15760029050610fd6565b600090505b919050565b6060600760040180548060200260200160405190810160405280929190818152602001828054801561102c57602002820191906000526020600020905b815481526020019060010190808311611018575b5050505050905090565b600080151561104361241b565b151514801561105d5750600115156110596115e1565b1515145b1561106b57600090506110eb565b600015156110788361126b565b151514156110d1576040517f08c379a000000000000000000000000000000000000000000000000000000000815260040180806020018281038252602d815260200180612a02602d913960400191505060405180910390fd5b600060020160008381526020019081526020016000205490505b919050565b6040518060400160405280600c81526020017f48656c6c6f20576f726c642100000000000000000000000000000000000000008152506015908051906020019061113b92919061281f565b50565b601460009054906101000a900473ffffffffffffffffffffffffffffffffffffffff1673ffffffffffffffffffffffffffffffffffffffff163373ffffffffffffffffffffffffffffffffffffffff1614611201576040517f08c379a00000000000000000000000000000000000000000000000000000000081526004018080602001828103825260168152602001807f53656e646572206e6f7420617574686f72697a65642e0000000000000000000081525060200191505060405180910390fd5b60008090505b815181101561125f57600760040182828151811061122157fe5b602002602001015190806001815401808255809150509060018203906000526020600020016000909192909190915055508080600101915050611207565b5050565b600030905090565b600080600090505b60008001805490508110156112d057826000600101600080600001848154811061129957fe5b906000526020600020015481526020019081526020016000205414156112c35760019150506112d6565b8080600101915050611273565b50600090505b919050565b601460009054906101000a900473ffffffffffffffffffffffffffffffffffffffff1673ffffffffffffffffffffffffffffffffffffffff163373ffffffffffffffffffffffffffffffffffffffff161461139e576040517f08c379a00000000000000000000000000000000000000000000000000000000081526004018080602001828103825260168152602001807f53656e646572206e6f7420617574686f72697a65642e0000000000000000000081525060200191505060405180910390fd5b60008090505b81518110156113fc5760076003018282815181106113be57fe5b6020026020010151908060018154018082558091505090600182039060005260206000200160009091929091909150555080806001019150506113a4565b5050565b6001151561140c612634565b151514801561142757506000151561142384612466565b1515145b1561147d576040517f08c379a0000000000000000000000000000000000000000000000000000000008152600401808060200182810382526021815260200180612a2f6021913960400191505060405180910390fd5b60011515611489612749565b15151480156114a45750600015156114a082611687565b1515145b15611517576040517f08c379a00000000000000000000000000000000000000000000000000000000081526004018080602001828103825260198152602001807f446f6d61696e206973206e6f7420776869746c69737465642e0000000000000081525060200191505060405180910390fd5b816003600201600085815260200190815260200160002060006101000a81548161ffff021916908361ffff160217905550336003600101600085815260200190815260200160002060006101000a81548173ffffffffffffffffffffffffffffffffffffffff021916908373ffffffffffffffffffffffffffffffffffffffff160217905550826003800160008461ffff1661ffff16815260200190815260200160002081905550505050565b6000600760000160069054906101000a900463ffffffff16905090565b6000600760000160069054906101000a900463ffffffff1663ffffffff16421061160e5760009050611613565b600190505b90565b6000806003600201600085815260200190815260200160002060009054906101000a900461ffff1661ffff1614801561166e57506000801b6003800160008461ffff1661ffff16815260200190815260200160002054145b1561167c5760019050611681565b600090505b92915050565b600080600090505b6007600401805490508110156116d85782600760040182815481106116b057fe5b906000526020600020015414156116cb5760019150506116de565b808060010191505061168f565b50600090505b919050565b601460009054906101000a900473ffffffffffffffffffffffffffffffffffffffff1673ffffffffffffffffffffffffffffffffffffffff163373ffffffffffffffffffffffffffffffffffffffff16146117a6576040517f08c379a00000000000000000000000000000000000000000000000000000000081526004018080602001828103825260168152602001807f53656e646572206e6f7420617574686f72697a65642e0000000000000000000081525060200191505060405180910390fd5b60008090505b815181101561180c578181815181106117c157fe5b6020026020010151600e8190555060008001600e54908060018154018082558091505090600182039060005260206000200160009091929091909150555080806001019150506117ac565b5050565b601460009054906101000a900473ffffffffffffffffffffffffffffffffffffffff1673ffffffffffffffffffffffffffffffffffffffff163373ffffffffffffffffffffffffffffffffffffffff16146118d3576040517f08c379a00000000000000000000000000000000000000000000000000000000081526004018080602001828103825260168152602001807f53656e646572206e6f7420617574686f72697a65642e0000000000000000000081525060200191505060405180910390fd5b6001600f8190555060008090505b6000800180549050811015611aca576000800181815481106118ff57fe5b9060005260206000200154600e8190555061191b600e54612055565b600c908051906020019061193092919061281f565b50600c60405160200180806020018281038252838181546001816001161561010002031660029004815260200191508054600181600116156101000203166002900480156119bf5780601f10611994576101008083540402835291602001916119bf565b820191906000526020600020905b8154815290600101906020018083116119a257829003601f168201915b5050925050506040516020818303038152906040528051906020012060006001016000600e54815260200190815260200160002081905550600f5460006002016000600c6040516020018080602001828103825283818154600181600116156101000203166002900481526020019150805460018160011615610100020316600290048015611a8f5780601f10611a6457610100808354040283529160200191611a8f565b820191906000526020600020905b815481529060010190602001808311611a7257829003601f168201915b5050925050506040516020818303038152906040528051906020012081526020019081526020016000208190555080806001019150506118e1565b50565b6000600760000160059054906101000a900460ff1660ff16600360000160003373ffffffffffffffffffffffffffffffffffffffff1673ffffffffffffffffffffffffffffffffffffffff16815260200190815260200160002060009054906101000a900460ff1660ff161415611b475760009050611b4c565b600190505b90565b60006003800160008361ffff1661ffff168152602001908152602001600020549050919050565b60001515611b826115e1565b15151415611bf8576040517f08c379a000000000000000000000000000000000000000000000000000000000815260040180806020018281038252601f8152602001807f5468652074696d6520666f7220766f74696e6720686173207061737365642e0081525060200191505060405180910390fd5b60001515611c04611acd565b15151415611c5d576040517f08c379a0000000000000000000000000000000000000000000000000000000008152600401808060200182810382526029815260200180612a506029913960400191505060405180910390fd5b60011515611c69612634565b1515148015611c84575060001515611c8084612466565b1515145b15611cda576040517f08c379a0000000000000000000000000000000000000000000000000000000008152600401808060200182810382526022815260200180612a796022913960400191505060405180910390fd5b60011515611ce6612749565b1515148015611d01575060001515611cfd83611687565b1515145b15611d74576040517f08c379a000000000000000000000000000000000000000000000000000000000815260040180806020018281038252601a8152602001807f446f6d61696e206973206e6f742077686974656c69737465642e00000000000081525060200191505060405180910390fd5b60006003600201600085815260200190815260200160002060009054906101000a900461ffff1661ffff161415611df6576040517f08c379a000000000000000000000000000000000000000000000000000000000815260040180806020018281038252602a8152602001806129d8602a913960400191505060405180910390fd5b3373ffffffffffffffffffffffffffffffffffffffff166003600101600085815260200190815260200160002060009054906101000a900473ffffffffffffffffffffffffffffffffffffffff1673ffffffffffffffffffffffffffffffffffffffff1614611eb0576040517f08c379a00000000000000000000000000000000000000000000000000000000081526004018080602001828103825260548152602001806129846054913960600191505060405180910390fd5b8360119080519060200190611ec692919061289f565b508060129080519060200190611edd9291906128ec565b506001600360000160003373ffffffffffffffffffffffffffffffffffffffff1673ffffffffffffffffffffffffffffffffffffffff16815260200190815260200160002060008282829054906101000a900460ff160192506101000a81548160ff021916908360ff16021790555060008090505b60128054905081101561204e5760128181548110611f6c57fe5b9060005260206000200154600e8190555060006001016000600e5481526020019081526020016000205460108190555060001515611fab60105461126b565b15151415612004576040517f08c379a000000000000000000000000000000000000000000000000000000000815260040180806020018281038252602d815260200180612a02602d913960400191505060405180910390fd5b6011818154811061201157fe5b9060005260206000200154600f81905550600f54600060020160006010548152602001908152602001600020819055508080600101915050611f52565b5050505050565b60608060206040519080825280601f01601f19166020018201604052801561208c5781602001600182028038833980820191505090505b509050600080905060008090505b60208110156121365760008160080260020a8660001c0260001b9050600060f81b817effffffffffffffffffffffffffffffffffffffffffffffffffffffffffffff19161461212857808484815181106120f057fe5b60200101907effffffffffffffffffffffffffffffffffffffffffffffffffffffffffffff1916908160001a90535082806001019350505b50808060010191505061209a565b506060816040519080825280601f01601f19166020018201604052801561216c5781602001600182028038833980820191505090505b50905060008090505b828110156121dc5783818151811061218957fe5b602001015160f81c60f81b8282815181106121a057fe5b60200101907effffffffffffffffffffffffffffffffffffffffffffffffffffffffffffff1916908160001a9053508080600101915050612175565b50809350505050919050565b60008015156121f68361126b565b1515141561224f576040517f08c379a000000000000000000000000000000000000000000000000000000000815260040180806020018281038252602d815260200180612a02602d913960400191505060405180910390fd5b60006002016000838152602001908152602001600020549050919050565b60606000151561227c83612707565b151514156122f2576040517f08c379a00000000000000000000000000000000000000000000000000000000081526004018080602001828103825260178152602001807f42616c6c6f74494420646f6573206e6f74206d6174636800000000000000000081525060200191505060405180910390fd5b6000800180548060200260200160405190810160405280929190818152602001828054801561234057602002820191906000526020600020905b81548152602001906001019080831161232c575b50505050509050919050565b601460009054906101000a900473ffffffffffffffffffffffffffffffffffffffff1673ffffffffffffffffffffffffffffffffffffffff163373ffffffffffffffffffffffffffffffffffffffff161461240f576040517f08c379a00000000000000000000000000000000000000000000000000000000081526004018080602001828103825260168152602001807f53656e646572206e6f7420617574686f72697a65642e0000000000000000000081525060200191505060405180910390fd5b6124188161113e565b50565b60006001600760000160009054906101000a900460ff1660ff1614156124445760009050612449565b600190505b90565b806015908051906020019061246292919061281f565b5050565b600080600090505b6007600301805490508110156124b757826007600301828154811061248f57fe5b906000526020600020015414156124aa5760019150506124bd565b808060010191505061246e565b50600090505b919050565b6000600760020160009054906101000a900460ff16905090565b6060600760030180548060200260200160405190810160405280929190818152602001828054801561252d57602002820191906000526020600020905b815481526020019060010190808311612519575b5050505050905090565b601460009054906101000a900473ffffffffffffffffffffffffffffffffffffffff1673ffffffffffffffffffffffffffffffffffffffff163373ffffffffffffffffffffffffffffffffffffffff16146125fa576040517f08c379a00000000000000000000000000000000000000000000000000000000081526004018080602001828103825260168152602001807f53656e646572206e6f7420617574686f72697a65642e0000000000000000000081525060200191505060405180910390fd5b612603816112db565b50565b60006003600201600083815260200190815260200160002060009054906101000a900461ffff169050919050565b60006001600760020160009054906101000a900460ff1660ff16141561265d5760019050612662565b600090505b90565b606060158054600181600116156101000203166002900480601f0160208091040260200160405190810160405280929190818152602001828054600181600116156101000203166002900480156126fd5780601f106126d2576101008083540402835291602001916126fd565b820191906000526020600020905b8154815290600101906020018083116126e057829003601f168201915b5050505050905090565b6000600760000160019054906101000a900463ffffffff1663ffffffff168267ffffffffffffffff16141561273f5760019050612744565b600090505b919050565b60006002600760020160009054906101000a900460ff1660ff1614156127725760019050612777565b600090505b90565b606060076001018054600181600116156101000203166002900480601f0160208091040260200160405190810160405280929190818152602001828054600181600116156101000203166002900480156128155780601f106127ea57610100808354040283529160200191612815565b820191906000526020600020905b8154815290600101906020018083116127f857829003601f168201915b5050505050905090565b828054600181600116156101000203166002900490600052602060002090601f016020900481019282601f1061286057805160ff191683800117855561288e565b8280016001018555821561288e579182015b8281111561288d578251825591602001919060010190612872565b5b50905061289b9190612939565b5090565b8280548282559060005260206000209081019282156128db579160200282015b828111156128da5782518255916020019190600101906128bf565b5b5090506128e89190612939565b5090565b828054828255906000526020600020908101928215612928579160200282015b8281111561292757825182559160200191906001019061290c565b5b509050612935919061295e565b5090565b61295b91905b8082111561295757600081600090555060010161293f565b5090565b90565b61298091905b8082111561297c576000816000905550600101612964565b5090565b9056fe457468657265756d206164647265737320646f6573206e6f74206d6174636820746865204574687265756d2061646472657373207265676973746572656420696e2074686520656d61696c20616464726573732e4253552073747564656e742f656d706c6f796565204944206973206e6f7420726567697374657265642e546869732069732061206e6f6e2d6578697374656e74206f7074696f6e2f63616e646964617465206e616d652e456d61696c2061646472657373206973206e6f742077686974656c69737465642e4d6178696d756d206e756d626572206f6620766f74657320686173206265656e20726561636865642e456d61696c2061646472657373206973206e6f742077686974656c6973747465642ea265627a7a7231582062e7479a57fb724f31839d3c58bb86908ae6ba234d504a18cea47fa8fd358a3964736f6c63430005100032a265627a7a7231582028e30ca5bf8d824a91ae137b57b35fc62e78939fed23bb5b61550468d1771fe764736f6c63430005100032",
  "source": "pragma solidity >=0.5.1;\n\ncontract Voting {\n\n    event Bool(bool judge);\n    event VotesCounts(uint256 _votesReceived);\n    \n    // \n    struct Ballot {\n        uint8 ballotType;   // ? election() or poll()\n        uint32 ballotId;    // Voting\n        uint8 voteLimit;    // \n        uint32 timeLimit;   // \n        string title;       // \n        uint8 whiteListType;                        // Email\n        bytes32[] whiteEmailAddresses;              // Email\n        bytes32[] whiteDomains;                     // Email\n    }\n\n    // \n    struct Candidates {\n        bytes32[] candidateList;    // \n        // bytes3string: candidateHash[candidateList[i]] => keccak256[string]\n        mapping (bytes32 => bytes32) candidateHash;\n        mapping (bytes32 => uint256) votesReceived; // Hashed candidate names => vote counts\n    }\n\n    // \n    struct Voter {\n        mapping (address => uint8) attemptedVotes;  // \n        mapping (bytes32 => address) voterAddr;     // EmailEthreum\n        mapping (bytes32 => uint16) voterID;        // Email/ID\n        mapping (uint16 => bytes32) voterEmail;     // /IDEmail\n    }\n\n    Candidates c;   // \n    Voter v;        // \n    Ballot b;       // \n\n    string convertCandidate;    // bytes32string\n    string tempTitle;           // title\n    bytes32 tempCandidate;      // \n    uint256 tempVote;           // votesReceived\n    bytes32 tempHash;           // \n    uint256[] tempVotes;        // votesReceived\n    bytes32[] tempCandidates;   // \n    bytes32 tempEmail;          // \n    address owner;              // \n\n    /// @param _timeLimit Voting Period\n    /// @param _ballotType The format of the vote. 0: poll, 1: election\n    /// @param _voteLimit Maximum number of vote\n    /// @param _ballotId A value to access a specific Voting contract.\n    /// @param _title Title\n    /// @param _whiteListType Whitelist type. 0: Non-whitelist, 1: E-mail, 2: domain\n    /// @param _candidates Candisates or choices.\n    /// @param _whiteStuff Whitelisted E-mail addresses or domains. \n    /// @param _owner Administrator's address\n    constructor (uint32 _timeLimit, uint8 _ballotType, uint8 _voteLimit, uint32 _ballotId, string memory _title, uint8 _whiteListType, bytes32[] memory _candidates, bytes32[] memory _whiteStuff, address _owner)\n    public {\n        b.timeLimit = _timeLimit;\n        b.ballotType = _ballotType;\n        b.voteLimit = _voteLimit;\n        b.ballotId = _ballotId;\n        b.title = _title;\n        b.whiteListType = _whiteListType;\n        for(uint i = 0; i < _candidates.length; i++) {\n            tempCandidate = _candidates[i];\n            c.candidateList.push(tempCandidate);\n        }\n\n        /// @notice Hash the candidate's name. and initialize the number of votes received.\n        /// @dev The reason for the initial received value of 1: 1 == decrypted0.\n        /// Because using a cryptographic scheme that adds up exponents. (PAILLER cipher)\n        tempVote = 1;\n        for(uint i = 0; i < c.candidateList.length; i++) {\n            tempCandidate = c.candidateList[i];\n            convertCandidate = bytes32ToString(tempCandidate);\n            c.candidateHash[tempCandidate] = keccak256(abi.encode(convertCandidate));\n            c.votesReceived[keccak256(abi.encode(convertCandidate))] = tempVote;\n        }\n\n        if (_whiteListType == 1){\n            for(uint i = 0; i < _whiteStuff.length; i++) {\n                b.whiteEmailAddresses.push(_whiteStuff[i]);\n            }\n        } else if (_whiteListType == 2){\n            for(uint i = 0; i < _whiteStuff.length; i++) {\n                b.whiteDomains.push(_whiteStuff[i]);\n            }\n        } else if (_whiteListType != 0){\n            revert('Invalid whitelist type.');\n        }\n        owner = _owner;\n    }\n\n\n    modifier onlyOwner {\n        require(msg.sender == owner, \"Sender not authorized.\");\n        _;\n    }\n\n    // \n    // bytes32[] _candidates : \n    function setCandidate(bytes32[] memory _candidates) public onlyOwner {\n        for(uint i = 0; i < _candidates.length; i++) {\n            tempCandidate = _candidates[i]; // i\n            c.candidateList.push(tempCandidate);    // ccandidateListtempCandidate\n        }\n    }\n\n    /// @param _emails List of email addresses to be added to whiteEmailAddresses\n    function setWhiteEmailAddress(bytes32[] memory _emails) public onlyOwner {\n        for(uint i = 0; i < _emails.length; i++) {\n            b.whiteEmailAddresses.push(_emails[i]);  // vwhiteEmailAddressestempEmail\n        }\n    }\n\n    function setWhiteDomain(bytes32[] memory _domains) public onlyOwner {\n        for(uint i = 0; i < _domains.length; i++) {\n            b.whiteDomains.push(_domains[i]);\n        }\n    }\n\n    function addWhiteEmailAddress(bytes32[] memory _emails) public onlyOwner {\n        setWhiteEmailAddress(_emails);\n    }\n\n    function addWhiteDomain(bytes32[] memory _domains) public onlyOwner {\n        setWhiteDomain(_domains);\n    }\n\n    /// @notice Hash the candidate's name. and initialize the number of votes received.\n    /// @dev The reason for the initial received value of 1: 1 == decrypted0.\n    /// Because using a cryptographic scheme that adds up exponents. (PAILLER cipher)\n    function hashCandidates() public onlyOwner {\n        tempVote = 1;   // \n        for(uint i = 0; i < c.candidateList.length; i++) {\n            tempCandidate = c.candidateList[i]; // ccandidateListi\n            convertCandidate = bytes32ToString(tempCandidate);  // tempCandidatestring\n            c.candidateHash[tempCandidate] = keccak256(abi.encode(convertCandidate));   // bytes32stringkeccak256\n            c.votesReceived[keccak256(abi.encode(convertCandidate))] = tempVote;    // keccak256, tempVote = 1\n        }\n    }\n\n    /// @param _votes Updated voting details\n    /// @param _email Voter's email address\n    /// @param _candidates Candidate List\n    function voteForCandidate(uint256[] memory _votes, bytes32 _email, bytes32 _domain, bytes32[] memory _candidates) public {\n        if (checkTimelimit() == false) revert('The time for voting has passed.');\n        if (checkVoteattempts() == false) revert('Maximum number of votes has been reached.');\n        if (usingWhiteEmailAddress() == true && whiteEmailAddressesIncludes(_email) == false) revert('Email address is not whitelistted.');\n        if (usingWhiteDomain() == true && whiteDomainsIncludes(_domain) == false) revert('Domain is not whitelisted.');\n        if (v.voterID[_email] == 0) revert(\"BSU student/employee ID is not registered.\");\n        if (v.voterAddr[_email] != msg.sender) revert(\"Ethereum address does not match the Ethreum address registered in the email address.\");\n        tempVotes = _votes;\n        tempCandidates = _candidates;       // \n        v.attemptedVotes[msg.sender] += 1;  // ()+1\n\n        for(uint i = 0; i < tempCandidates.length; i++) {\n            tempCandidate = tempCandidates[i];\n            tempHash = c.candidateHash[tempCandidate]; // \n            if (validCandidate(tempHash) == false) revert('This is a non-existent option/candidate name.');\n            tempVote = tempVotes[i];\n            c.votesReceived[tempHash] = tempVote;   // \n        }\n    }\n\n    // bytes32 cHashvotesReceived(?)\n    function votesFor(bytes32 cHash) public view returns (uint256){\n        if (validCandidate(cHash) == false) revert('This is a non-existent option/candidate name.');\n        // emit VotesCounts(c.votesReceived[cHash]);\n        return c.votesReceived[cHash];\n    }\n\n    // bytes32 cHashvotesReceived(?)\n    /// @return \n    function totalVotesFor(bytes32 cHash) public view returns (uint256){\n        if (checkBallottype() == false && checkTimelimit() == true){\n            // emit VotesCounts(0);\n            return 0;   // ,\n        }\n        if (validCandidate(cHash) == false) revert('This is a non-existent option/candidate name.');\n        // emit VotesCounts(c.votesReceived[cHash]);\n        return c.votesReceived[cHash];\n    }\n\n    function registerVoter(bytes32 _email, uint16 _idnum, bytes32 _domain) public {\n        if (usingWhiteEmailAddress() == true && whiteEmailAddressesIncludes(_email) == false) revert('Email address is not whitelisted.');\n        if (usingWhiteDomain() == true && whiteDomainsIncludes(_domain) == false) revert('Domain is not whitlisted.');\n        v.voterID[_email] = _idnum;           // Email/ID\n        v.voterAddr[_email] = msg.sender;    // EmailEtherum\n        v.voterEmail[_idnum] = _email;        // /IDEmail\n    }\n\n    // \n    // true, false\n    // bytes32 email : \n    // uint16 idnum  : /ID\n    function checkReg(bytes32 _email, uint16 _idnum) public view returns (bool) {\n        if (v.voterID[_email] == 0 && v.voterEmail[_idnum] == 0) return true;\n        else return false;\n    }\n\n    // \n    // bytes32 email : \n    function checkVoter(bytes32 email) public view returns (uint8) {\n        if (v.voterID[email] == 0) return 1;            // 1\n        // EthreumEthereum2\n        if (v.voterAddr[email] != msg.sender) return 2;\n        else return 0;  // 0\n    }\n\n    // bytes32 xstring\n    function bytes32ToString(bytes32 x) public pure returns (string memory) {\n        bytes memory bytesString = new bytes(32);\n        uint charCount = 0;\n        for (uint j = 0; j < 32; j++) {\n            byte char = byte(bytes32(uint(x) * 2 ** (8 * j)));\n            if (char != 0) {\n                bytesString[charCount] = char;\n                charCount++;\n            }\n        }\n        bytes memory bytesStringTrimmed = new bytes(charCount);\n        for (uint j = 0; j < charCount; j++) {\n            bytesStringTrimmed[j] = bytesString[j];\n        }\n        return string(bytesStringTrimmed);\n    }\n\n    // bytes32 cHash()candidateListtrue, false\n    function validCandidate(bytes32 cHash) public view returns (bool) {\n        for(uint k = 0; k < c.candidateList.length; k++) {\n            // tempCandidate = c.candidateList[k];\n            if (c.candidateHash[c.candidateList[k]] == cHash) {\n                // emit Bool(true);\n                return true;\n            }\n        }\n        // emit Bool(false);\n        return false;\n    }\n\n    // \n    // uint64 _ballotID : ID\n    function getCandidateList(uint64 _ballotID) public view returns (bytes32[] memory) {\n        if (checkballotID(_ballotID) == false) revert('BallotID does not match');\n        return c.candidateList;\n    }\n\n    //  : (block.timestamp :seconds) https://zoom-blc.com/solidity-time-logic\n    // : false\n    // : true\n    function checkTimelimit() public view returns (bool) {\n        if (block.timestamp >= b.timeLimit) return false;\n        else return true;\n    }\n\n    // ballotType.\n    function checkBallottype() public view returns (bool) {\n        if (b.ballotType == 1) return false;\n        else return true;\n    }\n\n    // IDID.\n    // true, false\n    function checkballotID(uint64 ballotID) public view returns (bool) {\n        if (ballotID == b.ballotId) return true;\n        else return false;\n    }\n\n    // , .\n    // true, false\n    function checkVoteattempts() public view returns (bool) {\n        if (v.attemptedVotes[msg.sender] == b.voteLimit) return false;\n        else return true;\n    }\n\n    function usingWhiteEmailAddress() public view returns (bool) {\n        if (b.whiteListType == 1) return true;\n        else return false;\n    }\n\n    function usingWhiteDomain() public view returns (bool) {\n        if (b.whiteListType == 2) return true;\n        else return false;\n    }\n\n    // bytes32 email, whiteEmailAddresses.\n    // true, false\n    function whiteEmailAddressesIncludes(bytes32 email) public view returns (bool) {\n        for(uint j = 0; j < b.whiteEmailAddresses.length; j++) {\n            if ( b.whiteEmailAddresses[j] == email) {\n                return true;\n            }\n        }\n        return false;\n    }\n\n    function whiteDomainsIncludes(bytes32 _domain) public view returns (bool) {\n        for(uint i = 0; i < b.whiteDomains.length; i++) {\n            if ( b.whiteDomains[i] == _domain) {\n                return true;\n            }\n        }\n        return false;\n    }\n\n    // \n    function getTimelimit() public view returns (uint32) {\n        return b.timeLimit;\n    }\n\n    // \n    function getTitle() public view returns (string memory) {\n        return b.title;\n    }\n\n    function getAddress()public view returns (address) {\n        return address(this);\n    }\n\n    // DEBUG\n\n    string message;\n\n    function helloworld() public {\n        message = \"Hello World!\";\n    }\n\n    function setHelloworld(string memory _message) public {\n        message = _message;\n    }\n\n    function getHelloworld() public view returns (string memory) {\n        return message;\n    }\n\n    function getWhiteDomains() public view returns (bytes32[] memory){\n        return b.whiteDomains;\n    }\n\n    function getWhiteEmailAddresses() public view returns (bytes32[] memory){\n        return b.whiteEmailAddresses;\n    }\n\n    function getWhitelistType() public view returns (uint8){\n        return b.whiteListType;\n    }\n\n    function getId (bytes32 _email)public view returns (uint16){\n        return v.voterID[_email];\n    }\n\n    function getEmail(uint16 _id)public view returns (bytes32){\n        return v.voterEmail[_id];\n    }\n}\n\n//                         //\n//Start of Creator contract//\n//                         //\n\ncontract Creator {\n\n    event newVotingContractEvent(\n       address contractAddress\n    );\n\n    mapping (uint32 => address) votes;      // Ballot ID => Voting conract address\n    mapping (address => uint32) ballotIds;  // Voting conract address => Ballot ID \n    \n    address owner;\n\n    function createBallot(uint32 _timeLimit, uint8 _ballotType, uint8 _voteLimit, uint32 _ballotId, string memory _title, uint8 _whiteListType, bytes32[] memory _candidates, bytes32[] memory _whiteStuff)\n    public {\n        Voting newVoting = new Voting(_timeLimit, _ballotType, _voteLimit, _ballotId, _title, _whiteListType, _candidates, _whiteStuff,  msg.sender);\n        votes[_ballotId] = address(newVoting);\n        ballotIds[address(newVoting)] = _ballotId;\n        emit newVotingContractEvent(address(newVoting));\n    }\n\n    function getAddress(uint32 _ballotId) public view returns(address) {\n        return votes[_ballotId];\n    }\n\n    function getBallotId(address _voting) public view returns(uint32 _ballotId) {\n        return ballotIds[_voting];\n    }\n}\n",
  "sourcePath": "/Users/hmori/dev/gifu_univ/BroncoVotes-mori/solidity/contracts/Creator.sol",
  "compiler": {
    "name": "solc",
    "version": "0.5.16+commit.9c3226ce.Emscripten.clang"
  },
  "schemaVersion": "3.4.1",
  "updatedAt": "2021-12-02T08:41:40.764Z",
  "networkType": "ethereum",
  "devdoc": {
    "methods": {}
  },
  "userdoc": {
    "methods": {}
  }
}