{
  "contractName": "Creator",
  "abi": [
    {
      "anonymous": false,
      "inputs": [
        {
          "indexed": false,
          "internalType": "address",
          "name": "contractAddress",
          "type": "address"
        }
      ],
      "name": "newVotingContractEvent",
      "type": "event"
    },
    {
      "constant": false,
      "inputs": [
        {
          "internalType": "uint32",
          "name": "_timeLimit",
          "type": "uint32"
        },
        {
          "internalType": "uint8",
          "name": "_ballotType",
          "type": "uint8"
        },
        {
          "internalType": "uint8",
          "name": "_voteLimit",
          "type": "uint8"
        },
        {
          "internalType": "uint32",
          "name": "_ballotId",
          "type": "uint32"
        },
        {
          "internalType": "string",
          "name": "_title",
          "type": "string"
        },
        {
          "internalType": "uint8",
          "name": "_whitelist",
          "type": "uint8"
        }
      ],
      "name": "createBallot",
      "outputs": [],
      "payable": false,
      "stateMutability": "nonpayable",
      "type": "function"
    },
    {
      "constant": true,
      "inputs": [
        {
          "internalType": "uint32",
          "name": "id",
          "type": "uint32"
        }
      ],
      "name": "getAddress",
      "outputs": [
        {
          "internalType": "contract Voting",
          "name": "contractAddress",
          "type": "address"
        }
      ],
      "payable": false,
      "stateMutability": "view",
      "type": "function"
    }
  ],
  "bytecode": "0x608060405234801561001057600080fd5b50612342806100206000396000f3fe608060405234801561001057600080fd5b50600436106100365760003560e01c8063550da4781461003b57806368501aee1461013d575b600080fd5b61013b600480360360c081101561005157600080fd5b81019080803563ffffffff169060200190929190803560ff169060200190929190803560ff169060200190929190803563ffffffff169060200190929190803590602001906401000000008111156100a857600080fd5b8201836020820111156100ba57600080fd5b803590602001918460018302840111640100000000831117156100dc57600080fd5b91908080601f016020809104026020016040519081016040528093929190818152602001838380828437600081840152601f19601f820116905080830192505050505050509192919290803560ff1690602001909291905050506101b1565b005b61016f6004803603602081101561015357600080fd5b81019080803563ffffffff169060200190929190505050610400565b604051808273ffffffffffffffffffffffffffffffffffffffff1673ffffffffffffffffffffffffffffffffffffffff16815260200191505060405180910390f35b33600160006101000a81548173ffffffffffffffffffffffffffffffffffffffff021916908373ffffffffffffffffffffffffffffffffffffffff1602179055506000868686868686600160009054906101000a900473ffffffffffffffffffffffffffffffffffffffff1660405161022990610448565b808863ffffffff1663ffffffff1681526020018760ff1660ff1681526020018660ff1660ff1681526020018563ffffffff1663ffffffff168152602001806020018460ff1660ff1681526020018373ffffffffffffffffffffffffffffffffffffffff1673ffffffffffffffffffffffffffffffffffffffff168152602001828103825285818151815260200191508051906020019080838360005b838110156102e05780820151818401526020810190506102c5565b50505050905090810190601f16801561030d5780820380516001836020036101000a031916815260200191505b5098505050505050505050604051809103906000f080158015610334573d6000803e3d6000fd5b509050806000808663ffffffff1663ffffffff16815260200190815260200160002060006101000a81548173ffffffffffffffffffffffffffffffffffffffff021916908373ffffffffffffffffffffffffffffffffffffffff1602179055507f700e8ad80f90ddc90cb456c925b7a26c0954bf61fbbda37b359952c2db7762c981604051808273ffffffffffffffffffffffffffffffffffffffff1673ffffffffffffffffffffffffffffffffffffffff16815260200191505060405180910390a150505050505050565b60008060008363ffffffff1663ffffffff16815260200190815260200160002060009054906101000a900473ffffffffffffffffffffffffffffffffffffffff169050919050565b611eb8806104568339019056fe60806040523480156200001157600080fd5b5060405162001eb838038062001eb8833981810160405260e08110156200003757600080fd5b8101908080519060200190929190805190602001909291908051906020019092919080519060200190929190805160405193929190846401000000008211156200008057600080fd5b838201915060208201858111156200009757600080fd5b8251866001820283011164010000000082111715620000b557600080fd5b8083526020830192505050908051906020019080838360005b83811015620000eb578082015181840152602081019050620000ce565b50505050905090810190601f168015620001195780820380516001836020036101000a031916815260200191505b50604052602001805190602001909291908051906020019092919050505086600660000160066101000a81548163ffffffff021916908363ffffffff16021790555085600660000160006101000a81548160ff021916908360ff16021790555084600660000160056101000a81548160ff021916908360ff16021790555083600660000160016101000a81548163ffffffff021916908363ffffffff1602179055508260066001019080519060200190620001d692919062000243565b5081600660020160006101000a81548160ff021916908360ff16021790555080601160006101000a81548173ffffffffffffffffffffffffffffffffffffffff021916908373ffffffffffffffffffffffffffffffffffffffff16021790555050505050505050620002f2565b828054600181600116156101000203166002900490600052602060002090601f016020900481019282601f106200028657805160ff1916838001178555620002b7565b82800160010185558215620002b7579182015b82811115620002b657825182559160200191906001019062000299565b5b509050620002c69190620002ca565b5090565b620002ef91905b80821115620002eb576000816000905550600101620002d1565b5090565b90565b611bb680620003026000396000f3fe608060405234801561001057600080fd5b506004361061012c5760003560e01c8063922133e3116100ad578063d05841a011610071578063d05841a01461068f578063eda6fb0114610747578063eda9daed146107ff578063f032bf931461084f578063ff3c1a8f146108715761012c565b8063922133e3146104a0578063a711b878146104e2578063b8381c781461056f578063c6c474bb14610627578063c91018a01461066d5761012c565b80635b9eb761116100f45780635b9eb7611461024b5780636cfd8b821461026d5780636ec4847a146102775780637ee4b0e5146102995780639201de55146103f95761012c565b806306f2057a146101315780632f265cf714610153578063392e6678146101955780635374be8f146101db578063555a1ad614610221575b600080fd5b6101396108f4565b604051808215151515815260200191505060405180910390f35b61017f6004803603602081101561016957600080fd5b8101908080359060200190929190505050610925565b6040518082815260200191505060405180910390f35b6101c1600480360360208110156101ab57600080fd5b81019080803590602001909291905050506109df565b604051808215151515815260200191505060405180910390f35b610207600480360360208110156101f157600080fd5b8101908080359060200190929190505050610a4f565b604051808215151515815260200191505060405180910390f35b610229610aab565b604051808263ffffffff1663ffffffff16815260200191505060405180910390f35b610253610ac8565b604051808215151515815260200191505060405180910390f35b610275610afd565b005b61027f610dba565b604051808215151515815260200191505060405180910390f35b6103f7600480360360808110156102af57600080fd5b81019080803590602001906401000000008111156102cc57600080fd5b8201836020820111156102de57600080fd5b8035906020019184602083028401116401000000008311171561030057600080fd5b919080806020026020016040519081016040528093929190818152602001838360200280828437600081840152601f19601f82011690508083019250505050505050919291929080359060200190929190803590602001909291908035906020019064010000000081111561037457600080fd5b82018360208201111561038657600080fd5b803590602001918460208302840111640100000000831117156103a857600080fd5b919080806020026020016040519081016040528093929190818152602001838360200280828437600081840152601f19601f820116905080830192505050505050509192919290505050610e3c565b005b6104256004803603602081101561040f57600080fd5b8101908080359060200190929190505050611156565b6040518080602001828103825283818151815260200191508051906020019080838360005b8381101561046557808201518184015260208101905061044a565b50505050905090810190601f1680156104925780820380516001836020036101000a031916815260200191505b509250505060405180910390f35b6104cc600480360360208110156104b657600080fd5b81019080803590602001909291905050506112e9565b6040518082815260200191505060405180910390f35b610518600480360360208110156104f857600080fd5b81019080803567ffffffffffffffff16906020019092919050505061136e565b6040518080602001828103825283818151815260200191508051906020019060200280838360005b8381101561055b578082015181840152602081019050610540565b505050509050019250505060405180910390f35b6106256004803603602081101561058557600080fd5b81019080803590602001906401000000008111156105a257600080fd5b8201836020820111156105b457600080fd5b803590602001918460208302840111640100000000831117156105d657600080fd5b919080806020026020016040519081016040528093929190818152602001838360200280828437600081840152601f19601f82011690508083019250505050505050919291929050505061144d565b005b6106536004803603602081101561063d57600080fd5b810190808035906020019092919050505061157b565b604051808215151515815260200191505060405180910390f35b6106756115d7565b604051808215151515815260200191505060405180910390f35b610745600480360360208110156106a557600080fd5b81019080803590602001906401000000008111156106c257600080fd5b8201836020820111156106d457600080fd5b803590602001918460208302840111640100000000831117156106f657600080fd5b919080806020026020016040519081016040528093929190818152602001838360200280828437600081840152601f19601f820116905080830192505050505050509192919290505050611608565b005b6107fd6004803603602081101561075d57600080fd5b810190808035906020019064010000000081111561077a57600080fd5b82018360208201111561078c57600080fd5b803590602001918460208302840111640100000000831117156107ae57600080fd5b919080806020026020016040519081016040528093929190818152602001838360200280828437600081840152601f19601f820116905080830192505050505050509192919290505050611735565b005b6108356004803603602081101561081557600080fd5b81019080803567ffffffffffffffff16906020019092919050505061185a565b604051808215151515815260200191505060405180910390f35b61085761189c565b604051808215151515815260200191505060405180910390f35b6108796118cd565b6040518080602001828103825283818151815260200191508051906020019080838360005b838110156108b957808201518184015260208101905061089e565b50505050905090810190601f1680156108e65780820380516001836020036101000a031916815260200191505b509250505060405180910390f35b60006001600660020160009054906101000a900460ff1660ff16141561091d5760019050610922565b600090505b90565b60008015156109326115d7565b151514801561094c575060011515610948610ac8565b1515145b1561095a57600090506109da565b60001515610967836109df565b151514156109c0576040517f08c379a000000000000000000000000000000000000000000000000000000000815260040180806020018281038252602d815260200180611afe602d913960400191505060405180910390fd5b600060020160008381526020019081526020016000205490505b919050565b600080600090505b6000800180549050811015610a44578260006001016000806000018481548110610a0d57fe5b90600052602060002001548152602001908152602001600020541415610a37576001915050610a4a565b80806001019150506109e7565b50600090505b919050565b600080600090505b600360000180549050811015610aa0578260036000018281548110610a7857fe5b90600052602060002001541415610a93576001915050610aa6565b8080600101915050610a57565b50600090505b919050565b6000600660000160069054906101000a900463ffffffff16905090565b6000600660000160069054906101000a900463ffffffff1663ffffffff164210610af55760009050610afa565b600190505b90565b601160009054906101000a900473ffffffffffffffffffffffffffffffffffffffff1673ffffffffffffffffffffffffffffffffffffffff163373ffffffffffffffffffffffffffffffffffffffff1614610bc0576040517f08c379a00000000000000000000000000000000000000000000000000000000081526004018080602001828103825260168152602001807f53656e646572206e6f7420617574686f72697a65642e0000000000000000000081525060200191505060405180910390fd5b6001600c8190555060008090505b6000800180549050811015610db757600080018181548110610bec57fe5b9060005260206000200154600b81905550610c08600b54611156565b60099080519060200190610c1d929190611972565b5060096040516020018080602001828103825283818154600181600116156101000203166002900481526020019150805460018160011615610100020316600290048015610cac5780601f10610c8157610100808354040283529160200191610cac565b820191906000526020600020905b815481529060010190602001808311610c8f57829003601f168201915b5050925050506040516020818303038152906040528051906020012060006001016000600b54815260200190815260200160002081905550600c546000600201600060096040516020018080602001828103825283818154600181600116156101000203166002900481526020019150805460018160011615610100020316600290048015610d7c5780601f10610d5157610100808354040283529160200191610d7c565b820191906000526020600020905b815481529060010190602001808311610d5f57829003601f168201915b505092505050604051602081830303815290604052805190602001208152602001908152602001600020819055508080600101915050610bce565b50565b6000600660000160059054906101000a900460ff1660ff16600360020160003373ffffffffffffffffffffffffffffffffffffffff1673ffffffffffffffffffffffffffffffffffffffff16815260200190815260200160002060009054906101000a900460ff1660ff161415610e345760009050610e39565b600190505b90565b60001515610e48610ac8565b15151480610e61575060001515610e5d610dba565b1515145b15610eb7576040517f08c379a0000000000000000000000000000000000000000000000000000000008152600401808060200182810382526029815260200180611b596029913960400191505060405180910390fd5b60011515610ec36108f4565b1515148015610ede575060001515610eda84610a4f565b1515145b15610f34576040517f08c379a000000000000000000000000000000000000000000000000000000000815260040180806020018281038252602e815260200180611b2b602e913960400191505060405180910390fd5b60011515610f4061189c565b1515148015610f5b575060001515610f578361157b565b1515145b15610fb1576040517f08c379a0000000000000000000000000000000000000000000000000000000008152600401808060200182810382526027815260200180611ad76027913960400191505060405180910390fd5b83600e9080519060200190610fc79291906119f2565b5080600f9080519060200190610fde929190611a3f565b506001600360020160003373ffffffffffffffffffffffffffffffffffffffff1673ffffffffffffffffffffffffffffffffffffffff16815260200190815260200160002060008282829054906101000a900460ff160192506101000a81548160ff021916908360ff16021790555060008090505b600f8054905081101561114f57600f818154811061106d57fe5b9060005260206000200154600b8190555060006001016000600b54815260200190815260200160002054600d81905550600015156110ac600d546109df565b15151415611105576040517f08c379a000000000000000000000000000000000000000000000000000000000815260040180806020018281038252602d815260200180611afe602d913960400191505060405180910390fd5b600e818154811061111257fe5b9060005260206000200154600c81905550600c5460006002016000600d548152602001908152602001600020819055508080600101915050611053565b5050505050565b60608060206040519080825280601f01601f19166020018201604052801561118d5781602001600182028038833980820191505090505b509050600080905060008090505b60208110156112375760008160080260020a8660001c0260001b9050600060f81b817effffffffffffffffffffffffffffffffffffffffffffffffffffffffffffff19161461122957808484815181106111f157fe5b60200101907effffffffffffffffffffffffffffffffffffffffffffffffffffffffffffff1916908160001a90535082806001019350505b50808060010191505061119b565b506060816040519080825280601f01601f19166020018201604052801561126d5781602001600182028038833980820191505090505b50905060008090505b828110156112dd5783818151811061128a57fe5b602001015160f81c60f81b8282815181106112a157fe5b60200101907effffffffffffffffffffffffffffffffffffffffffffffffffffffffffffff1916908160001a9053508080600101915050611276565b50809350505050919050565b60008015156112f7836109df565b15151415611350576040517f08c379a000000000000000000000000000000000000000000000000000000000815260040180806020018281038252602d815260200180611afe602d913960400191505060405180910390fd5b60006002016000838152602001908152602001600020549050919050565b60606000151561137d8361185a565b151514156113f3576040517f08c379a00000000000000000000000000000000000000000000000000000000081526004018080602001828103825260188152602001807f42616c6c6f74494420646f6573206e6f74206d617463682e000000000000000081525060200191505060405180910390fd5b6000800180548060200260200160405190810160405280929190818152602001828054801561144157602002820191906000526020600020905b81548152602001906001019080831161142d575b50505050509050919050565b601160009054906101000a900473ffffffffffffffffffffffffffffffffffffffff1673ffffffffffffffffffffffffffffffffffffffff163373ffffffffffffffffffffffffffffffffffffffff1614611510576040517f08c379a00000000000000000000000000000000000000000000000000000000081526004018080602001828103825260168152602001807f53656e646572206e6f7420617574686f72697a65642e0000000000000000000081525060200191505060405180910390fd5b60008090505b81518110156115775781818151811061152b57fe5b6020026020010151601081905550600360000160105490806001815401808255809150509060018203906000526020600020016000909192909190915055508080600101915050611516565b5050565b600080600090505b6003600101805490508110156115cc5782600360010182815481106115a457fe5b906000526020600020015414156115bf5760019150506115d2565b8080600101915050611583565b50600090505b919050565b60006001600660000160009054906101000a900460ff1660ff1614156116005760009050611605565b600190505b90565b601160009054906101000a900473ffffffffffffffffffffffffffffffffffffffff1673ffffffffffffffffffffffffffffffffffffffff163373ffffffffffffffffffffffffffffffffffffffff16146116cb576040517f08c379a00000000000000000000000000000000000000000000000000000000081526004018080602001828103825260168152602001807f53656e646572206e6f7420617574686f72697a65642e0000000000000000000081525060200191505060405180910390fd5b60008090505b8151811015611731578181815181106116e657fe5b6020026020010151600b8190555060008001600b54908060018154018082558091505090600182039060005260206000200160009091929091909150555080806001019150506116d1565b5050565b601160009054906101000a900473ffffffffffffffffffffffffffffffffffffffff1673ffffffffffffffffffffffffffffffffffffffff163373ffffffffffffffffffffffffffffffffffffffff16146117f8576040517f08c379a00000000000000000000000000000000000000000000000000000000081526004018080602001828103825260168152602001807f53656e646572206e6f7420617574686f72697a65642e0000000000000000000081525060200191505060405180910390fd5b60008090505b815181101561185657600360010182828151811061181857fe5b6020026020010151908060018154018082558091505090600182039060005260206000200160009091929091909150555080806001019150506117fe565b5050565b6000600660000160019054906101000a900463ffffffff1663ffffffff168267ffffffffffffffff1614156118925760019050611897565b600090505b919050565b60006001600660020160009054906101000a900460ff1660ff1614156118c557600190506118ca565b600090505b90565b606060066001018054600181600116156101000203166002900480601f0160208091040260200160405190810160405280929190818152602001828054600181600116156101000203166002900480156119685780601f1061193d57610100808354040283529160200191611968565b820191906000526020600020905b81548152906001019060200180831161194b57829003601f168201915b5050505050905090565b828054600181600116156101000203166002900490600052602060002090601f016020900481019282601f106119b357805160ff19168380011785556119e1565b828001600101855582156119e1579182015b828111156119e05782518255916020019190600101906119c5565b5b5090506119ee9190611a8c565b5090565b828054828255906000526020600020908101928215611a2e579160200282015b82811115611a2d578251825591602001919060010190611a12565b5b509050611a3b9190611a8c565b5090565b828054828255906000526020600020908101928215611a7b579160200282015b82811115611a7a578251825591602001919060010190611a5f565b5b509050611a889190611ab1565b5090565b611aae91905b80821115611aaa576000816000905550600101611a92565b5090565b90565b611ad391905b80821115611acf576000816000905550600101611ab7565b5090565b9056fe446f6d61696e206973206e6f7420696e636c7564656420696e207468652077686974656c697374546869732069732061206e6f6e2d6578697374656e74206f7074696f6e2f63616e646964617465206e616d652e456d61696c2061646472657373206973206e6f7420696e636c7564656420696e207468652077686974656c6973744d6178696d756d206e756d626572206f6620766f74657320686173206265656e20726561636865642ea265627a7a72315820d7982484245d89f0227483f4019109a40dc286621eb74e6a2beafd91b0e1b43d64736f6c63430005100032a265627a7a72315820ce9097e35ab71d8d2f506435759d66598bee51e9755a68a69fc3ff16a6ac79e264736f6c63430005100032",
  "source": "pragma solidity ^0.5.1;\n\ncontract Voting {\n\n    event Bool(bool judge);\n    event VotesCounts(uint256 _votesReceived);\n    // 投票用紙情報をまとめた構造体\n    struct Ballot {\n        uint8 ballotType;   // 投票用紙の形式? election(選択式) or poll(記述式)\n        uint32 ballotId;    // 特定のVotingコントラクトにアクセスするための値\n        uint8 voteLimit;    // 投票回数\n        uint32 timeLimit;   // 投票期間\n        string title;       // タイトル\n        uint8 whitelist;    // 投票に個別なEmailアドレスのホワイトリストの形式\n    }\n\n    // 候補者情報をまとめた構造体\n    struct Candidates {\n        bytes32[] candidateList;    // 候補者リストを配列で保存\n        // bytes3型の候補者名とstring型の候補者名のハッシュ値の対応付け: candidateHash[candidateList[i]] => keccak256[string型の候補者名]\n        mapping (bytes32 => bytes32) candidateHash;\n        mapping (bytes32 => uint256) votesReceived; // 候補者のハッシュ値と\n    }\n\n    // 投票者情報をまとめた構造体\n    struct Voter {\n        bytes32[] whitelisted;                      // 投票に個別なEmailアドレスのホワイトリスト\n        bytes32[] whiteDomains;                     // 投票に個別なEmailアドレスのドメインのホワイトリスト\n        mapping (address => uint8) attemptedVotes;  // 各アドレスに対応する投票者の現在の投票回数\n    }\n\n    Candidates c;   // 候補者情報をまとめた構造体\n    Voter v;        // 投票者情報をまとめた構造体\n    Ballot b;       // 投票用紙情報をまとめた構造体\n\n    string convertCandidate;    // bytes32型で保存されている候補者名をstring型に変換したもの\n    string tempTitle;           // titleを一時格納\n    bytes32 tempCandidate;      // 候補者を一時格納\n    uint256 tempVote;           // votesReceivedに格納されている値を一時格納\n    bytes32 tempHash;           // ハッシュ値を一時格納\n    uint256[] tempVotes;        // votesReceivedを一時格納\n    bytes32[] tempCandidates;   // 候補者リストを一時格納\n    bytes32 tempEmail;          // メールアドレス格納\n    address owner;              // 管理者のアドレス\n\n    // コンストラクタ\n    // uint32 _timeLimit  : 投票期間?\n    // uint8  _ballotType : 投票用紙の形式? election(選択式) or poll(記述式)\n    // uint8  _voteLimit  : 投票回数?\n    // uint32 _ballotId   : 特定のVotingコントラクトにアクセスするための値\n    // stting _title      : タイトル\n    // uint8 _whitelisted : 投票に個別なEmailアドレスのホワイトリスト\n    // address _owner     : 管理者のアドレス\n    constructor\n    (uint32 _timeLimit, uint8 _ballotType, uint8 _voteLimit, uint32 _ballotId, string memory _title, uint8 _whitelist, address _owner)\n    public {\n        // 投票用紙情報をまとめている構造体bに各パラメータを設定\n        b.timeLimit = _timeLimit;\n        b.ballotType = _ballotType;\n        b.voteLimit = _voteLimit;\n        b.ballotId = _ballotId;\n        b.title = _title;\n        b.whitelist = _whitelist;\n\n        owner = _owner; // 管理者のアドレスを格納\n    }\n\n    // modifier処理を設定\n    // このmodifierがついたメソッドを呼び出したユーザーが管理者アドレスと一致するかを確認する.\n    // 一致すれば処理を続行, 一致しなければ処理をその時点で終了し, contractの状態を実行前に戻す\n    modifier onlyOwner {\n        require(msg.sender == owner, \"Sender not authorized.\");\n        _;\n    }\n\n    // 候補者リストの設定を行う : 管理者のみ実行可能\n    // bytes32[] _candidates : 候補者リスト\n    function setCandidates(bytes32[] memory _candidates) public onlyOwner {\n        for(uint i = 0; i < _candidates.length; i++) {\n            tempCandidate = _candidates[i]; // i番目の候補者を一時保存\n            c.candidateList.push(tempCandidate);    // 候補者情報をまとめた構造体cのメンバ変数candidateListにtempCandidateを追加\n        }\n    }\n\n    // whitelistedの設定を行う : 管理者のみ実行可能\n    // bytes32[] _emails      : whitelistedに追加したいメールアドレスリスト\n    function setWhitelisted(bytes32[] memory _emails) public onlyOwner {\n        for(uint i = 0; i < _emails.length; i++) {\n            tempEmail = _emails[i]; // i番目のメールアドレスを一時保存\n            v.whitelisted.push(tempEmail);  // 投票者情報をまとめた構造体vのメンバ変数whitelistedにtempEmailを追加\n        }\n    }\n\n    function setWhiteListedDomain(bytes32[] memory _domain) public onlyOwner {\n        for(uint i = 0; i < _domain.length; i++) {\n            v.whiteDomains.push(_domain[i]);\n        }\n    }\n\n    // 候補者リストに格納されている候補者名をハッシュ化していく\n    function hashCandidates() public onlyOwner {\n        tempVote = 1;   // 初期値\n        for(uint i = 0; i < c.candidateList.length; i++) {\n            tempCandidate = c.candidateList[i]; // 候補者情報をまとめた構造体cのメンバ変数candidateListのi番目の値を一時保存\n            convertCandidate = bytes32ToString(tempCandidate);  // tempCandidateに格納されている候補者名をstring型に変換する\n            c.candidateHash[tempCandidate] = keccak256(abi.encode(convertCandidate));   // bytes32の候補者名とstring型の候補者名をkeccak256でハッシュ化したものの対応付け\n            c.votesReceived[keccak256(abi.encode(convertCandidate))] = tempVote;    // 候補者名をkeccak256でハッシュ化したものと, tempVote = 1を対応付け\n        }\n    }\n\n    // uint256[] _votes : 投票内容?\n    // bytes32[] _candidates : 投票者が使用した候補者リスト\n    // bytes32 _email : 投票するユーザーのメールアドレス\n    function voteForCandidate(uint256[] memory _votes, bytes32 _email, bytes32 _domain, bytes32[] memory _candidates) public {\n        // 投票回数の上限に達しているか\n        if (checkTimelimit() == false || checkVoteattempts() == false) revert('Maximum number of votes has been reached.');\n        // Emailアドレスがホワイトリストに含まれているか\n        if (checkWhitelist() == true && checkifWhitelisted(_email) == false) revert('Email address is not included in the whitelist');\n        // Emailアドレスのドメインがホワイトリストに含まれているか\n        if (usingWhiteDomain() == true && whiteDomainIncludes(_domain) == false) revert('Domain is not included in the whitelist');\n        tempVotes = _votes;\n        tempCandidates = _candidates;       // 候補者リストを一時保存\n        v.attemptedVotes[msg.sender] += 1;  // このメソッドを呼び出したユーザ(投票した人)の投票回数を+1する\n\n        for(uint i = 0; i < tempCandidates.length; i++) {\n            tempCandidate = tempCandidates[i];\n            tempHash = c.candidateHash[tempCandidate]; // 候補者名のハッシュ値を格納\n            if (validCandidate(tempHash) == false) revert('This is a non-existent option/candidate name.');\n            tempVote = tempVotes[i];\n            c.votesReceived[tempHash] = tempVote;   // 候補者に対応する投票結果を保存\n        }\n    }\n\n    // 入力bytes32 cHashに対応するvotesReceived(途中結果の投票数?)を出力する\n    function votesFor(bytes32 cHash) public view returns (uint256){\n        if (validCandidate(cHash) == false) revert('This is a non-existent option/candidate name.');\n        // emit VotesCounts(c.votesReceived[cHash]);\n        return c.votesReceived[cHash];\n    }\n\n    // 入力bytes32 cHashに対応するvotesReceived(集計結果?)を出力する\n    function totalVotesFor(bytes32 cHash) public view returns (uint256){\n        if (checkBallottype() == false && checkTimelimit() == true){\n            // emit VotesCounts(0);\n            return 0;   // 投票期間中で,\n        }\n        if (validCandidate(cHash) == false) revert('This is a non-existent option/candidate name.');\n        // emit VotesCounts(c.votesReceived[cHash]);\n        return c.votesReceived[cHash];\n    }\n\n    // 入力値bytes32 xをstring型に変換\n    function bytes32ToString(bytes32 x) public pure returns (string memory) {\n        bytes memory bytesString = new bytes(32);\n        uint charCount = 0;\n        for (uint j = 0; j < 32; j++) {\n            byte char = byte(bytes32(uint(x) * 2 ** (8 * j)));\n            if (char != 0) {\n                bytesString[charCount] = char;\n                charCount++;\n            }\n        }\n        bytes memory bytesStringTrimmed = new bytes(charCount);\n        for (uint j = 0; j < charCount; j++) {\n            bytesStringTrimmed[j] = bytesString[j];\n        }\n        return string(bytesStringTrimmed);\n    }\n\n    // 入力bytes32 cHash(候補者名のハッシュ値)が全候補者名のハッシュリストcandidateListの中に一致するものがあればtrue, なければfalse\n    function validCandidate(bytes32 cHash) public view returns (bool) {\n        for(uint k = 0; k < c.candidateList.length; k++) {\n            // tempCandidate = c.candidateList[k];\n            if (c.candidateHash[c.candidateList[k]] == cHash) {\n                // emit Bool(true);\n                return true;\n            }\n        }\n        // emit Bool(false);\n        return false;\n    }\n\n    // 設定されている候補者リストを出力する\n    // uint64 _ballotID : 投票用紙ID\n    function candidateList(uint64 _ballotID) public view returns (bytes32[] memory) {\n        if (checkballotID(_ballotID) == false) revert('BallotID does not match.');\n        return c.candidateList;\n    }\n\n    // 設定したタイムリミットに超えているかをチェックする : 現在のブロックに記録されているタイムスタンプで判断(block.timestamp 単位:seconds) https://zoom-blc.com/solidity-time-logic\n    // タイムリミットを超えていた場合: false\n    // タイムリミットを超えていない場合: true\n    function checkTimelimit() public view returns (bool) {\n        if (block.timestamp >= b.timeLimit) return false;\n        else return true;\n    }\n\n    // 設定したballotTypeをチェックする.\n    function checkBallottype() public view returns (bool) {\n        if (b.ballotType == 1) return false;\n        else return true;\n    }\n\n    // 入力された投票用紙IDと最初に設定した投票用紙IDが一致するかをチェックする.\n    // 一致すればtrue, しなければfalse\n    function checkballotID(uint64 ballotID) public view returns (bool) {\n        if (ballotID == b.ballotId) return true;\n        else return false;\n    }\n\n    // このメソッドを呼び出したユーザーが, 投票回数の上限に達しているかをチェックする.\n    // 達していなければtrue, 達していればfalse\n    function checkVoteattempts() public view returns (bool) {\n        if (v.attemptedVotes[msg.sender] == b.voteLimit) return false;\n        else return true;\n    }\n\n    // whiletelistに格納されている値が1であればtrue, 1でなければfalse\n    function checkWhitelist() public view returns (bool) {\n        if (b.whitelist == 1) return true;\n        else return false;\n    }\n\n    function usingWhiteDomain() public view returns (bool) {\n        if (b.whitelist == 1) return true;\n        else return false;\n    }\n\n    // 入力値bytes32 emailが, whitelistedに登録されているかをチェックする.\n    // 登録されていればtrue, されていなければfalse\n    function checkifWhitelisted(bytes32 email) public view returns (bool) {\n        for(uint j = 0; j < v.whitelisted.length; j++) {\n            if ( v.whitelisted[j] == email) {\n                return true;\n            }\n        }\n        return false;\n    }\n\n    function whiteDomainIncludes(bytes32 _domain) public view returns (bool) {\n        for(uint i = 0; i < v.whiteDomains.length; i++) {\n            if ( v.whiteDomains[i] == _domain) {\n                return true;\n            }\n        }\n        return false;\n    }\n\n    // 設定されているタイムリミットを出力する\n    function getTimelimit() public view returns (uint32) {\n        return b.timeLimit;\n    }\n\n    // 設定されているタイトルを出力する\n    function getTitle() public view returns (string memory) {\n        return b.title;\n    }\n}\n\n//                         //\n//Start of Creator contract//\n//                         //\n\ncontract Creator {\n\n    event newVotingContractEvent(\n       address contractAddress\n    );\n\n    mapping (uint32 => Voting) contracts;  // Votingコントラクトのアドレスを登録. contracts[投票用紙ID(uint32)] => アドレスにアクセス\n    address owner;                          // 管理者のアドレス\n\n    // Votingコントラクトの設定パラメータを入力して作成, contractsに格納するメソッド\n    // uint32 _timeLimit  : 投票期間?\n    // uint8  _ballotType : 投票用紙の形式?  election(選択式)1 or poll(記述式)0\n    // uint8  _voteLimit  : 投票回数?\n    // uint32 _ballotId   : 特定のVotingコントラクトにアクセスするための値\n    // string _title      : タイトル\n    // uint8 _whitelisted : 投票ごとのホワイトリストの形式\n    function createBallot(uint32 _timeLimit, uint8 _ballotType, uint8 _voteLimit, uint32 _ballotId, string memory _title, uint8 _whitelist)\n    public {\n        owner = msg.sender;     // このメソッドを呼び出したアカウントのアドレスを格納\n        Voting newContract = new Voting(_timeLimit, _ballotType, _voteLimit, _ballotId, _title, _whitelist, owner);\n        contracts[_ballotId] = newContract; // 作成したVotingコントラクトのアドレスを登録\n        emit newVotingContractEvent(address(newContract));\n    }\n\n    // 入力したidに対応したcontractsに格納されているVotingコントラクトアドレスを出力\n    function getAddress(uint32 id) public view returns(Voting contractAddress) {\n        return contracts[id];\n    }\n}\n",
  "sourcePath": "/Users/hmori/dev/tmp/BroncoVotes-mori/solidity/contracts/Creator.sol",
  "compiler": {
    "name": "solc",
    "version": "0.5.16+commit.9c3226ce.Emscripten.clang"
  },
  "schemaVersion": "3.4.1",
  "updatedAt": "2021-10-13T17:01:52.376Z",
  "networkType": "ethereum",
  "devdoc": {
    "methods": {}
  },
  "userdoc": {
    "methods": {}
  }
}